{"contracts/AnnualBudget.sol":{"AnnualBudget":{"abi":[{"inputs":[{"internalType":"address","name":"_maticContractAddress","type":"address"},{"internalType":"uint256","name":"_unLockTime","type":"uint256"}],"stateMutability":"nonpayable","type":"constructor"},{"inputs":[],"name":"amountEqualZero","type":"error"},{"inputs":[],"name":"doesNotExist","type":"error"},{"inputs":[],"name":"notOwner","type":"error"},{"inputs":[],"name":"notYetTime","type":"error"},{"inputs":[],"name":"transferFailed","type":"error"},{"anonymous":false,"inputs":[{"indexed":true,"internalType":"uint256","name":"ID","type":"uint256"},{"indexed":true,"internalType":"uint256","name":"amount","type":"uint256"},{"indexed":true,"internalType":"string","name":"content","type":"string"},{"indexed":false,"internalType":"bool","name":"created","type":"bool"}],"name":"BudgetCreated","type":"event"},{"anonymous":false,"inputs":[{"indexed":true,"internalType":"uint256","name":"ID","type":"uint256"}],"name":"ItemRemoved","type":"event"},{"anonymous":false,"inputs":[{"indexed":false,"internalType":"uint256","name":"amount","type":"uint256"},{"indexed":false,"internalType":"uint256","name":"when","type":"uint256"}],"name":"Withdrawal","type":"event"},{"inputs":[{"internalType":"uint256","name":"","type":"uint256"}],"name":"Budgets","outputs":[{"internalType":"uint256","name":"ID","type":"uint256"},{"internalType":"uint256","name":"maticAmount","type":"uint256"},{"internalType":"string","name":"item","type":"string"},{"internalType":"bool","name":"created","type":"bool"}],"stateMutability":"view","type":"function"},{"inputs":[],"name":"balance","outputs":[{"internalType":"uint256","name":"contractBalance","type":"uint256"}],"stateMutability":"view","type":"function"},{"inputs":[],"name":"budgetCount","outputs":[{"internalType":"uint256","name":"","type":"uint256"}],"stateMutability":"view","type":"function"},{"inputs":[{"internalType":"string","name":"_item","type":"string"},{"internalType":"uint256","name":"_maticAmount","type":"uint256"}],"name":"createBudget","outputs":[],"stateMutability":"nonpayable","type":"function"},{"inputs":[{"internalType":"uint256","name":"amount","type":"uint256"}],"name":"depositBudgetFund","outputs":[],"stateMutability":"payable","type":"function"},{"inputs":[],"name":"initialBudgetFunds","outputs":[{"internalType":"uint256","name":"","type":"uint256"}],"stateMutability":"view","type":"function"},{"inputs":[{"internalType":"uint256","name":"_ID","type":"uint256"}],"name":"listItem","outputs":[{"components":[{"internalType":"uint256","name":"ID","type":"uint256"},{"internalType":"uint256","name":"maticAmount","type":"uint256"},{"internalType":"string","name":"item","type":"string"},{"internalType":"bool","name":"created","type":"bool"}],"internalType":"struct AnnualBudget.budgetItems","name":"","type":"tuple"}],"stateMutability":"view","type":"function"},{"inputs":[],"name":"maticContractAddress","outputs":[{"internalType":"contract ERC20","name":"","type":"address"}],"stateMutability":"view","type":"function"},{"inputs":[],"name":"myList","outputs":[{"components":[{"internalType":"uint256","name":"ID","type":"uint256"},{"internalType":"uint256","name":"maticAmount","type":"uint256"},{"internalType":"string","name":"item","type":"string"},{"internalType":"bool","name":"created","type":"bool"}],"internalType":"struct AnnualBudget.budgetItems[]","name":"","type":"tuple[]"}],"stateMutability":"view","type":"function"},{"inputs":[],"name":"owner","outputs":[{"internalType":"address payable","name":"","type":"address"}],"stateMutability":"view","type":"function"},{"inputs":[{"internalType":"uint256","name":"","type":"uint256"}],"name":"removeItem","outputs":[{"internalType":"bool","name":"","type":"bool"}],"stateMutability":"view","type":"function"},{"inputs":[{"internalType":"uint256","name":"_ID","type":"uint256"}],"name":"removeItems","outputs":[],"stateMutability":"nonpayable","type":"function"},{"inputs":[],"name":"unlockTime","outputs":[{"internalType":"uint256","name":"","type":"uint256"}],"stateMutability":"view","type":"function"},{"inputs":[],"name":"withdraw","outputs":[],"stateMutability":"nonpayable","type":"function"}],"evm":{"bytecode":{"linkReferences":{},"object":"608060405260006001553480156200001657600080fd5b50604051620021753803806200217583398181016040528101906200003c9190620001b7565b80421062000081576040517f08c379a000000000000000000000000000000000000000000000000000000000815260040162000078906200025f565b60405180910390fd5b8060008190555081600460006101000a81548173ffffffffffffffffffffffffffffffffffffffff021916908373ffffffffffffffffffffffffffffffffffffffff16021790555033600360006101000a81548173ffffffffffffffffffffffffffffffffffffffff021916908373ffffffffffffffffffffffffffffffffffffffff160217905550505062000281565b600080fd5b600073ffffffffffffffffffffffffffffffffffffffff82169050919050565b6000620001448262000117565b9050919050565b620001568162000137565b81146200016257600080fd5b50565b60008151905062000176816200014b565b92915050565b6000819050919050565b62000191816200017c565b81146200019d57600080fd5b50565b600081519050620001b18162000186565b92915050565b60008060408385031215620001d157620001d062000112565b5b6000620001e18582860162000165565b9250506020620001f485828601620001a0565b9150509250929050565b600082825260208201905092915050565b7f4e6f7420596574204368726973746d6173000000000000000000000000000000600082015250565b600062000247601183620001fe565b915062000254826200020f565b602082019050919050565b600060208201905081810360008301526200027a8162000238565b9050919050565b611ee480620002916000396000f3fe6080604052600436106100dd5760003560e01c80638da5cb5b1161007f578063a11ad09711610059578063a11ad09714610291578063b69ef8a8146102ba578063d9859144146102e5578063da14bde314610325576100dd565b80638da5cb5b146102105780639cd7756f1461023b5780639f02f10714610266576100dd565b80633ccfd60b116100bb5780633ccfd60b1461017557806341ddfcb21461018c57806371329171146101b75780637b7e5a0f146101f4576100dd565b80630a3e6fc2146100e2578063251c1aa31461010d5780632ce3819014610138575b600080fd5b3480156100ee57600080fd5b506100f761034e565b604051610104919061110a565b60405180910390f35b34801561011957600080fd5b50610122610354565b60405161012f919061110a565b60405180910390f35b34801561014457600080fd5b5061015f600480360381019061015a9190611165565b61035a565b60405161016c91906112af565b60405180910390f35b34801561018157600080fd5b5061018a610448565b005b34801561019857600080fd5b506101a1610730565b6040516101ae919061110a565b60405180910390f35b3480156101c357600080fd5b506101de60048036038101906101d99190611165565b610736565b6040516101eb91906112e0565b60405180910390f35b61020e60048036038101906102099190611165565b610756565b005b34801561021c57600080fd5b506102256109d7565b604051610232919061133c565b60405180910390f35b34801561024757600080fd5b506102506109fd565b60405161025d91906113b6565b60405180910390f35b34801561027257600080fd5b5061027b610a23565b60405161028891906114f6565b60405180910390f35b34801561029d57600080fd5b506102b860048036038101906102b3919061164d565b610b43565b005b3480156102c657600080fd5b506102cf610da3565b6040516102dc919061110a565b60405180910390f35b3480156102f157600080fd5b5061030c60048036038101906103079190611165565b610e46565b60405161031c94939291906116f3565b60405180910390f35b34801561033157600080fd5b5061034c60048036038101906103479190611165565b610f0b565b005b60015481565b60005481565b61036261106a565b6006600083815260200190815260200160002060405180608001604052908160008201548152602001600182015481526020016002820180546103a49061176e565b80601f01602080910402602001604051908101604052809291908181526020018280546103d09061176e565b801561041d5780601f106103f25761010080835404028352916020019161041d565b820191906000526020600020905b81548152906001019060200180831161040057829003601f168201915b505050505081526020016003820160009054906101000a900460ff1615151515815250509050919050565b600054421161048c576040517f08c379a0000000000000000000000000000000000000000000000000000000008152600401610483906117eb565b60405180910390fd5b600360009054906101000a900473ffffffffffffffffffffffffffffffffffffffff1673ffffffffffffffffffffffffffffffffffffffff163373ffffffffffffffffffffffffffffffffffffffff161461051c576040517f08c379a000000000000000000000000000000000000000000000000000000000815260040161051390611857565b60405180910390fd5b6000600460009054906101000a900473ffffffffffffffffffffffffffffffffffffffff1673ffffffffffffffffffffffffffffffffffffffff166370a08231306040518263ffffffff1660e01b81526004016105799190611898565b602060405180830381865afa158015610596573d6000803e3d6000fd5b505050506040513d601f19601f820116820180604052508101906105ba91906118c8565b9050600081036105f6576040517f1ef4962600000000000000000000000000000000000000000000000000000000815260040160405180910390fd5b7fbf2ed60bd5b5965d685680c01195c9514e4382e28e3a5a2d2d5244bf59411b9381426040516106279291906118f5565b60405180910390a16000600460009054906101000a900473ffffffffffffffffffffffffffffffffffffffff1673ffffffffffffffffffffffffffffffffffffffff1663a9059cbb600360009054906101000a900473ffffffffffffffffffffffffffffffffffffffff16846040518363ffffffff1660e01b81526004016106b092919061193f565b6020604051808303816000875af11580156106cf573d6000803e3d6000fd5b505050506040513d601f19601f820116820180604052508101906106f39190611994565b90508061072c576040517fe465903e00000000000000000000000000000000000000000000000000000000815260040160405180910390fd5b5050565b60025481565b60076020528060005260406000206000915054906101000a900460ff1681565b600073ffffffffffffffffffffffffffffffffffffffff163373ffffffffffffffffffffffffffffffffffffffff16036107c5576040517f08c379a00000000000000000000000000000000000000000000000000000000081526004016107bc90611a0d565b60405180910390fd5b6000600460009054906101000a900473ffffffffffffffffffffffffffffffffffffffff1673ffffffffffffffffffffffffffffffffffffffff166370a08231336040518263ffffffff1660e01b81526004016108229190611898565b602060405180830381865afa15801561083f573d6000803e3d6000fd5b505050506040513d601f19601f8201168201806040525081019061086391906118c8565b116108a3576040517f08c379a000000000000000000000000000000000000000000000000000000000815260040161089a90611a79565b60405180910390fd5b600081036108dd576040517f1ef4962600000000000000000000000000000000000000000000000000000000815260040160405180910390fd5b6000600460009054906101000a900473ffffffffffffffffffffffffffffffffffffffff1673ffffffffffffffffffffffffffffffffffffffff166323b872dd3330856040518463ffffffff1660e01b815260040161093e93929190611a99565b6020604051808303816000875af115801561095d573d6000803e3d6000fd5b505050506040513d601f19601f820116820180604052508101906109819190611994565b9050806109ba576040517fe465903e00000000000000000000000000000000000000000000000000000000815260040160405180910390fd5b81600260008282546109cc9190611aff565b925050819055505050565b600360009054906101000a900473ffffffffffffffffffffffffffffffffffffffff1681565b600460009054906101000a900473ffffffffffffffffffffffffffffffffffffffff1681565b60606005805480602002602001604051908101604052809291908181526020016000905b82821015610b3a57838290600052602060002090600402016040518060800160405290816000820154815260200160018201548152602001600282018054610a8e9061176e565b80601f0160208091040260200160405190810160405280929190818152602001828054610aba9061176e565b8015610b075780601f10610adc57610100808354040283529160200191610b07565b820191906000526020600020905b815481529060010190602001808311610aea57829003601f168201915b505050505081526020016003820160009054906101000a900460ff16151515158152505081526020019060010190610a47565b50505050905090565b6001151560066000600154815260200190815260200160002060030160009054906101000a900460ff16151503610baf576040517f08c379a0000000000000000000000000000000000000000000000000000000008152600401610ba690611b7f565b60405180910390fd5b60006006600060015481526020019081526020016000206040518060800160405290816000820154815260200160018201548152602001600282018054610bf59061176e565b80601f0160208091040260200160405190810160405280929190818152602001828054610c219061176e565b8015610c6e5780601f10610c4357610100808354040283529160200191610c6e565b820191906000526020600020905b815481529060010190602001808311610c5157829003601f168201915b505050505081526020016003820160009054906101000a900460ff161515151581525050905060405180608001604052806001548152602001838152602001848152602001600115158152509050600581908060018154018082558091505060019003906000526020600020906004020160009091909190915060008201518160000155602082015181600101556040820151816002019081610d119190611d41565b5060608201518160030160006101000a81548160ff021916908315150217905550505082604051610d429190611e4f565b6040518091039020826001547ff940d73082329298bb2b60070647d4264f2666f40a848526dd284ff4240923e86001604051610d7e91906112e0565b60405180910390a460016000815480929190610d9990611e66565b9190505550505050565b6000600460009054906101000a900473ffffffffffffffffffffffffffffffffffffffff1673ffffffffffffffffffffffffffffffffffffffff166370a08231306040518263ffffffff1660e01b8152600401610e009190611898565b602060405180830381865afa158015610e1d573d6000803e3d6000fd5b505050506040513d601f19601f82011682018060405250810190610e4191906118c8565b905090565b6006602052806000526040600020600091509050806000015490806001015490806002018054610e759061176e565b80601f0160208091040260200160405190810160405280929190818152602001828054610ea19061176e565b8015610eee5780601f10610ec357610100808354040283529160200191610eee565b820191906000526020600020905b815481529060010190602001808311610ed157829003601f168201915b5050505050908060030160009054906101000a900460ff16905084565b600360009054906101000a900473ffffffffffffffffffffffffffffffffffffffff1673ffffffffffffffffffffffffffffffffffffffff163373ffffffffffffffffffffffffffffffffffffffff1603610f92576040517f251c9d6300000000000000000000000000000000000000000000000000000000815260040160405180910390fd5b600115156007600083815260200190815260200160002060009054906101000a900460ff16151503610ff0576040517f1dcc85ae00000000000000000000000000000000000000000000000000000000815260040160405180910390fd5b807fa54eda4149a0fb9258911733973ecf1f6762357ed371fc6d1e63123bbce23bed60405160405180910390a26006600082815260200190815260200160002060008082016000905560018201600090556002820160006110519190611094565b6003820160006101000a81549060ff0219169055505050565b60405180608001604052806000815260200160008152602001606081526020016000151581525090565b5080546110a09061176e565b6000825580601f106110b257506110d1565b601f0160209004906000526020600020908101906110d091906110d4565b5b50565b5b808211156110ed5760008160009055506001016110d5565b5090565b6000819050919050565b611104816110f1565b82525050565b600060208201905061111f60008301846110fb565b92915050565b6000604051905090565b600080fd5b600080fd5b611142816110f1565b811461114d57600080fd5b50565b60008135905061115f81611139565b92915050565b60006020828403121561117b5761117a61112f565b5b600061118984828501611150565b91505092915050565b61119b816110f1565b82525050565b600081519050919050565b600082825260208201905092915050565b60005b838110156111db5780820151818401526020810190506111c0565b60008484015250505050565b6000601f19601f8301169050919050565b6000611203826111a1565b61120d81856111ac565b935061121d8185602086016111bd565b611226816111e7565b840191505092915050565b60008115159050919050565b61124681611231565b82525050565b60006080830160008301516112646000860182611192565b5060208301516112776020860182611192565b506040830151848203604086015261128f82826111f8565b91505060608301516112a4606086018261123d565b508091505092915050565b600060208201905081810360008301526112c9818461124c565b905092915050565b6112da81611231565b82525050565b60006020820190506112f560008301846112d1565b92915050565b600073ffffffffffffffffffffffffffffffffffffffff82169050919050565b6000611326826112fb565b9050919050565b6113368161131b565b82525050565b6000602082019050611351600083018461132d565b92915050565b6000819050919050565b600061137c611377611372846112fb565b611357565b6112fb565b9050919050565b600061138e82611361565b9050919050565b60006113a082611383565b9050919050565b6113b081611395565b82525050565b60006020820190506113cb60008301846113a7565b92915050565b600081519050919050565b600082825260208201905092915050565b6000819050602082019050919050565b60006080830160008301516114156000860182611192565b5060208301516114286020860182611192565b506040830151848203604086015261144082826111f8565b9150506060830151611455606086018261123d565b508091505092915050565b600061146c83836113fd565b905092915050565b6000602082019050919050565b600061148c826113d1565b61149681856113dc565b9350836020820285016114a8856113ed565b8060005b858110156114e457848403895281516114c58582611460565b94506114d083611474565b925060208a019950506001810190506114ac565b50829750879550505050505092915050565b600060208201905081810360008301526115108184611481565b905092915050565b600080fd5b600080fd5b7f4e487b7100000000000000000000000000000000000000000000000000000000600052604160045260246000fd5b61155a826111e7565b810181811067ffffffffffffffff8211171561157957611578611522565b5b80604052505050565b600061158c611125565b90506115988282611551565b919050565b600067ffffffffffffffff8211156115b8576115b7611522565b5b6115c1826111e7565b9050602081019050919050565b82818337600083830152505050565b60006115f06115eb8461159d565b611582565b90508281526020810184848401111561160c5761160b61151d565b5b6116178482856115ce565b509392505050565b600082601f83011261163457611633611518565b5b81356116448482602086016115dd565b91505092915050565b600080604083850312156116645761166361112f565b5b600083013567ffffffffffffffff81111561168257611681611134565b5b61168e8582860161161f565b925050602061169f85828601611150565b9150509250929050565b600082825260208201905092915050565b60006116c5826111a1565b6116cf81856116a9565b93506116df8185602086016111bd565b6116e8816111e7565b840191505092915050565b600060808201905061170860008301876110fb565b61171560208301866110fb565b818103604083015261172781856116ba565b905061173660608301846112d1565b95945050505050565b7f4e487b7100000000000000000000000000000000000000000000000000000000600052602260045260246000fd5b6000600282049050600182168061178657607f821691505b6020821081036117995761179861173f565b5b50919050565b7f4e6f74205965742054696d650000000000000000000000000000000000000000600082015250565b60006117d5600c836116a9565b91506117e08261179f565b602082019050919050565b60006020820190508181036000830152611804816117c8565b9050919050565b7f4e6f74204f776e65720000000000000000000000000000000000000000000000600082015250565b60006118416009836116a9565b915061184c8261180b565b602082019050919050565b6000602082019050818103600083015261187081611834565b9050919050565b6000611882826112fb565b9050919050565b61189281611877565b82525050565b60006020820190506118ad6000830184611889565b92915050565b6000815190506118c281611139565b92915050565b6000602082840312156118de576118dd61112f565b5b60006118ec848285016118b3565b91505092915050565b600060408201905061190a60008301856110fb565b61191760208301846110fb565b9392505050565b600061192982611383565b9050919050565b6119398161191e565b82525050565b60006040820190506119546000830185611930565b61196160208301846110fb565b9392505050565b61197181611231565b811461197c57600080fd5b50565b60008151905061198e81611968565b92915050565b6000602082840312156119aa576119a961112f565b5b60006119b88482850161197f565b91505092915050565b7f496e76616c696420416464726573730000000000000000000000000000000000600082015250565b60006119f7600f836116a9565b9150611a02826119c1565b602082019050919050565b60006020820190508181036000830152611a26816119ea565b9050919050565b7f496e73756666696369656e74206d617469632062616c616e6365000000000000600082015250565b6000611a63601a836116a9565b9150611a6e82611a2d565b602082019050919050565b60006020820190508181036000830152611a9281611a56565b9050919050565b6000606082019050611aae6000830186611889565b611abb6020830185611889565b611ac860408301846110fb565b949350505050565b7f4e487b7100000000000000000000000000000000000000000000000000000000600052601160045260246000fd5b6000611b0a826110f1565b9150611b15836110f1565b9250828201905080821115611b2d57611b2c611ad0565b5b92915050565b7f4974656d20616c72656164792063726561746564000000000000000000000000600082015250565b6000611b696014836116a9565b9150611b7482611b33565b602082019050919050565b60006020820190508181036000830152611b9881611b5c565b9050919050565b60008190508160005260206000209050919050565b60006020601f8301049050919050565b600082821b905092915050565b600060088302611c017fffffffffffffffffffffffffffffffffffffffffffffffffffffffffffffffff82611bc4565b611c0b8683611bc4565b95508019841693508086168417925050509392505050565b6000611c3e611c39611c34846110f1565b611357565b6110f1565b9050919050565b6000819050919050565b611c5883611c23565b611c6c611c6482611c45565b848454611bd1565b825550505050565b600090565b611c81611c74565b611c8c818484611c4f565b505050565b5b81811015611cb057611ca5600082611c79565b600181019050611c92565b5050565b601f821115611cf557611cc681611b9f565b611ccf84611bb4565b81016020851015611cde578190505b611cf2611cea85611bb4565b830182611c91565b50505b505050565b600082821c905092915050565b6000611d1860001984600802611cfa565b1980831691505092915050565b6000611d318383611d07565b9150826002028217905092915050565b611d4a826111a1565b67ffffffffffffffff811115611d6357611d62611522565b5b611d6d825461176e565b611d78828285611cb4565b600060209050601f831160018114611dab5760008415611d99578287015190505b611da38582611d25565b865550611e0b565b601f198416611db986611b9f565b60005b82811015611de157848901518255600182019150602085019450602081019050611dbc565b86831015611dfe5784890151611dfa601f891682611d07565b8355505b6001600288020188555050505b505050505050565b600081905092915050565b6000611e29826111a1565b611e338185611e13565b9350611e438185602086016111bd565b80840191505092915050565b6000611e5b8284611e1e565b915081905092915050565b6000611e71826110f1565b91507fffffffffffffffffffffffffffffffffffffffffffffffffffffffffffffffff8203611ea357611ea2611ad0565b5b60018201905091905056fea26469706673582212207546d08da2d61ad8e1562d98bdfd99e4f1c5a13147f4aff5b0fa0a5d762c80df64736f6c63430008110033","opcodes":"PUSH1 0x80 PUSH1 0x40 MSTORE PUSH1 0x0 PUSH1 0x1 SSTORE CALLVALUE DUP1 ISZERO PUSH3 0x16 JUMPI PUSH1 0x0 DUP1 REVERT JUMPDEST POP PUSH1 0x40 MLOAD PUSH3 0x2175 CODESIZE SUB DUP1 PUSH3 0x2175 DUP4 CODECOPY DUP2 DUP2 ADD PUSH1 0x40 MSTORE DUP2 ADD SWAP1 PUSH3 0x3C SWAP2 SWAP1 PUSH3 0x1B7 JUMP JUMPDEST DUP1 TIMESTAMP LT PUSH3 0x81 JUMPI PUSH1 0x40 MLOAD PUSH32 0x8C379A000000000000000000000000000000000000000000000000000000000 DUP2 MSTORE PUSH1 0x4 ADD PUSH3 0x78 SWAP1 PUSH3 0x25F JUMP JUMPDEST PUSH1 0x40 MLOAD DUP1 SWAP2 SUB SWAP1 REVERT JUMPDEST DUP1 PUSH1 0x0 DUP2 SWAP1 SSTORE POP DUP2 PUSH1 0x4 PUSH1 0x0 PUSH2 0x100 EXP DUP2 SLOAD DUP2 PUSH20 0xFFFFFFFFFFFFFFFFFFFFFFFFFFFFFFFFFFFFFFFF MUL NOT AND SWAP1 DUP4 PUSH20 0xFFFFFFFFFFFFFFFFFFFFFFFFFFFFFFFFFFFFFFFF AND MUL OR SWAP1 SSTORE POP CALLER PUSH1 0x3 PUSH1 0x0 PUSH2 0x100 EXP DUP2 SLOAD DUP2 PUSH20 0xFFFFFFFFFFFFFFFFFFFFFFFFFFFFFFFFFFFFFFFF MUL NOT AND SWAP1 DUP4 PUSH20 0xFFFFFFFFFFFFFFFFFFFFFFFFFFFFFFFFFFFFFFFF AND MUL OR SWAP1 SSTORE POP POP POP PUSH3 0x281 JUMP JUMPDEST PUSH1 0x0 DUP1 REVERT JUMPDEST PUSH1 0x0 PUSH20 0xFFFFFFFFFFFFFFFFFFFFFFFFFFFFFFFFFFFFFFFF DUP3 AND SWAP1 POP SWAP2 SWAP1 POP JUMP JUMPDEST PUSH1 0x0 PUSH3 0x144 DUP3 PUSH3 0x117 JUMP JUMPDEST SWAP1 POP SWAP2 SWAP1 POP JUMP JUMPDEST PUSH3 0x156 DUP2 PUSH3 0x137 JUMP JUMPDEST DUP2 EQ PUSH3 0x162 JUMPI PUSH1 0x0 DUP1 REVERT JUMPDEST POP JUMP JUMPDEST PUSH1 0x0 DUP2 MLOAD SWAP1 POP PUSH3 0x176 DUP2 PUSH3 0x14B JUMP JUMPDEST SWAP3 SWAP2 POP POP JUMP JUMPDEST PUSH1 0x0 DUP2 SWAP1 POP SWAP2 SWAP1 POP JUMP JUMPDEST PUSH3 0x191 DUP2 PUSH3 0x17C JUMP JUMPDEST DUP2 EQ PUSH3 0x19D JUMPI PUSH1 0x0 DUP1 REVERT JUMPDEST POP JUMP JUMPDEST PUSH1 0x0 DUP2 MLOAD SWAP1 POP PUSH3 0x1B1 DUP2 PUSH3 0x186 JUMP JUMPDEST SWAP3 SWAP2 POP POP JUMP JUMPDEST PUSH1 0x0 DUP1 PUSH1 0x40 DUP4 DUP6 SUB SLT ISZERO PUSH3 0x1D1 JUMPI PUSH3 0x1D0 PUSH3 0x112 JUMP JUMPDEST JUMPDEST PUSH1 0x0 PUSH3 0x1E1 DUP6 DUP3 DUP7 ADD PUSH3 0x165 JUMP JUMPDEST SWAP3 POP POP PUSH1 0x20 PUSH3 0x1F4 DUP6 DUP3 DUP7 ADD PUSH3 0x1A0 JUMP JUMPDEST SWAP2 POP POP SWAP3 POP SWAP3 SWAP1 POP JUMP JUMPDEST PUSH1 0x0 DUP3 DUP3 MSTORE PUSH1 0x20 DUP3 ADD SWAP1 POP SWAP3 SWAP2 POP POP JUMP JUMPDEST PUSH32 0x4E6F7420596574204368726973746D6173000000000000000000000000000000 PUSH1 0x0 DUP3 ADD MSTORE POP JUMP JUMPDEST PUSH1 0x0 PUSH3 0x247 PUSH1 0x11 DUP4 PUSH3 0x1FE JUMP JUMPDEST SWAP2 POP PUSH3 0x254 DUP3 PUSH3 0x20F JUMP JUMPDEST PUSH1 0x20 DUP3 ADD SWAP1 POP SWAP2 SWAP1 POP JUMP JUMPDEST PUSH1 0x0 PUSH1 0x20 DUP3 ADD SWAP1 POP DUP2 DUP2 SUB PUSH1 0x0 DUP4 ADD MSTORE PUSH3 0x27A DUP2 PUSH3 0x238 JUMP JUMPDEST SWAP1 POP SWAP2 SWAP1 POP JUMP JUMPDEST PUSH2 0x1EE4 DUP1 PUSH3 0x291 PUSH1 0x0 CODECOPY PUSH1 0x0 RETURN INVALID PUSH1 0x80 PUSH1 0x40 MSTORE PUSH1 0x4 CALLDATASIZE LT PUSH2 0xDD JUMPI PUSH1 0x0 CALLDATALOAD PUSH1 0xE0 SHR DUP1 PUSH4 0x8DA5CB5B GT PUSH2 0x7F JUMPI DUP1 PUSH4 0xA11AD097 GT PUSH2 0x59 JUMPI DUP1 PUSH4 0xA11AD097 EQ PUSH2 0x291 JUMPI DUP1 PUSH4 0xB69EF8A8 EQ PUSH2 0x2BA JUMPI DUP1 PUSH4 0xD9859144 EQ PUSH2 0x2E5 JUMPI DUP1 PUSH4 0xDA14BDE3 EQ PUSH2 0x325 JUMPI PUSH2 0xDD JUMP JUMPDEST DUP1 PUSH4 0x8DA5CB5B EQ PUSH2 0x210 JUMPI DUP1 PUSH4 0x9CD7756F EQ PUSH2 0x23B JUMPI DUP1 PUSH4 0x9F02F107 EQ PUSH2 0x266 JUMPI PUSH2 0xDD JUMP JUMPDEST DUP1 PUSH4 0x3CCFD60B GT PUSH2 0xBB JUMPI DUP1 PUSH4 0x3CCFD60B EQ PUSH2 0x175 JUMPI DUP1 PUSH4 0x41DDFCB2 EQ PUSH2 0x18C JUMPI DUP1 PUSH4 0x71329171 EQ PUSH2 0x1B7 JUMPI DUP1 PUSH4 0x7B7E5A0F EQ PUSH2 0x1F4 JUMPI PUSH2 0xDD JUMP JUMPDEST DUP1 PUSH4 0xA3E6FC2 EQ PUSH2 0xE2 JUMPI DUP1 PUSH4 0x251C1AA3 EQ PUSH2 0x10D JUMPI DUP1 PUSH4 0x2CE38190 EQ PUSH2 0x138 JUMPI JUMPDEST PUSH1 0x0 DUP1 REVERT JUMPDEST CALLVALUE DUP1 ISZERO PUSH2 0xEE JUMPI PUSH1 0x0 DUP1 REVERT JUMPDEST POP PUSH2 0xF7 PUSH2 0x34E JUMP JUMPDEST PUSH1 0x40 MLOAD PUSH2 0x104 SWAP2 SWAP1 PUSH2 0x110A JUMP JUMPDEST PUSH1 0x40 MLOAD DUP1 SWAP2 SUB SWAP1 RETURN JUMPDEST CALLVALUE DUP1 ISZERO PUSH2 0x119 JUMPI PUSH1 0x0 DUP1 REVERT JUMPDEST POP PUSH2 0x122 PUSH2 0x354 JUMP JUMPDEST PUSH1 0x40 MLOAD PUSH2 0x12F SWAP2 SWAP1 PUSH2 0x110A JUMP JUMPDEST PUSH1 0x40 MLOAD DUP1 SWAP2 SUB SWAP1 RETURN JUMPDEST CALLVALUE DUP1 ISZERO PUSH2 0x144 JUMPI PUSH1 0x0 DUP1 REVERT JUMPDEST POP PUSH2 0x15F PUSH1 0x4 DUP1 CALLDATASIZE SUB DUP2 ADD SWAP1 PUSH2 0x15A SWAP2 SWAP1 PUSH2 0x1165 JUMP JUMPDEST PUSH2 0x35A JUMP JUMPDEST PUSH1 0x40 MLOAD PUSH2 0x16C SWAP2 SWAP1 PUSH2 0x12AF JUMP JUMPDEST PUSH1 0x40 MLOAD DUP1 SWAP2 SUB SWAP1 RETURN JUMPDEST CALLVALUE DUP1 ISZERO PUSH2 0x181 JUMPI PUSH1 0x0 DUP1 REVERT JUMPDEST POP PUSH2 0x18A PUSH2 0x448 JUMP JUMPDEST STOP JUMPDEST CALLVALUE DUP1 ISZERO PUSH2 0x198 JUMPI PUSH1 0x0 DUP1 REVERT JUMPDEST POP PUSH2 0x1A1 PUSH2 0x730 JUMP JUMPDEST PUSH1 0x40 MLOAD PUSH2 0x1AE SWAP2 SWAP1 PUSH2 0x110A JUMP JUMPDEST PUSH1 0x40 MLOAD DUP1 SWAP2 SUB SWAP1 RETURN JUMPDEST CALLVALUE DUP1 ISZERO PUSH2 0x1C3 JUMPI PUSH1 0x0 DUP1 REVERT JUMPDEST POP PUSH2 0x1DE PUSH1 0x4 DUP1 CALLDATASIZE SUB DUP2 ADD SWAP1 PUSH2 0x1D9 SWAP2 SWAP1 PUSH2 0x1165 JUMP JUMPDEST PUSH2 0x736 JUMP JUMPDEST PUSH1 0x40 MLOAD PUSH2 0x1EB SWAP2 SWAP1 PUSH2 0x12E0 JUMP JUMPDEST PUSH1 0x40 MLOAD DUP1 SWAP2 SUB SWAP1 RETURN JUMPDEST PUSH2 0x20E PUSH1 0x4 DUP1 CALLDATASIZE SUB DUP2 ADD SWAP1 PUSH2 0x209 SWAP2 SWAP1 PUSH2 0x1165 JUMP JUMPDEST PUSH2 0x756 JUMP JUMPDEST STOP JUMPDEST CALLVALUE DUP1 ISZERO PUSH2 0x21C JUMPI PUSH1 0x0 DUP1 REVERT JUMPDEST POP PUSH2 0x225 PUSH2 0x9D7 JUMP JUMPDEST PUSH1 0x40 MLOAD PUSH2 0x232 SWAP2 SWAP1 PUSH2 0x133C JUMP JUMPDEST PUSH1 0x40 MLOAD DUP1 SWAP2 SUB SWAP1 RETURN JUMPDEST CALLVALUE DUP1 ISZERO PUSH2 0x247 JUMPI PUSH1 0x0 DUP1 REVERT JUMPDEST POP PUSH2 0x250 PUSH2 0x9FD JUMP JUMPDEST PUSH1 0x40 MLOAD PUSH2 0x25D SWAP2 SWAP1 PUSH2 0x13B6 JUMP JUMPDEST PUSH1 0x40 MLOAD DUP1 SWAP2 SUB SWAP1 RETURN JUMPDEST CALLVALUE DUP1 ISZERO PUSH2 0x272 JUMPI PUSH1 0x0 DUP1 REVERT JUMPDEST POP PUSH2 0x27B PUSH2 0xA23 JUMP JUMPDEST PUSH1 0x40 MLOAD PUSH2 0x288 SWAP2 SWAP1 PUSH2 0x14F6 JUMP JUMPDEST PUSH1 0x40 MLOAD DUP1 SWAP2 SUB SWAP1 RETURN JUMPDEST CALLVALUE DUP1 ISZERO PUSH2 0x29D JUMPI PUSH1 0x0 DUP1 REVERT JUMPDEST POP PUSH2 0x2B8 PUSH1 0x4 DUP1 CALLDATASIZE SUB DUP2 ADD SWAP1 PUSH2 0x2B3 SWAP2 SWAP1 PUSH2 0x164D JUMP JUMPDEST PUSH2 0xB43 JUMP JUMPDEST STOP JUMPDEST CALLVALUE DUP1 ISZERO PUSH2 0x2C6 JUMPI PUSH1 0x0 DUP1 REVERT JUMPDEST POP PUSH2 0x2CF PUSH2 0xDA3 JUMP JUMPDEST PUSH1 0x40 MLOAD PUSH2 0x2DC SWAP2 SWAP1 PUSH2 0x110A JUMP JUMPDEST PUSH1 0x40 MLOAD DUP1 SWAP2 SUB SWAP1 RETURN JUMPDEST CALLVALUE DUP1 ISZERO PUSH2 0x2F1 JUMPI PUSH1 0x0 DUP1 REVERT JUMPDEST POP PUSH2 0x30C PUSH1 0x4 DUP1 CALLDATASIZE SUB DUP2 ADD SWAP1 PUSH2 0x307 SWAP2 SWAP1 PUSH2 0x1165 JUMP JUMPDEST PUSH2 0xE46 JUMP JUMPDEST PUSH1 0x40 MLOAD PUSH2 0x31C SWAP5 SWAP4 SWAP3 SWAP2 SWAP1 PUSH2 0x16F3 JUMP JUMPDEST PUSH1 0x40 MLOAD DUP1 SWAP2 SUB SWAP1 RETURN JUMPDEST CALLVALUE DUP1 ISZERO PUSH2 0x331 JUMPI PUSH1 0x0 DUP1 REVERT JUMPDEST POP PUSH2 0x34C PUSH1 0x4 DUP1 CALLDATASIZE SUB DUP2 ADD SWAP1 PUSH2 0x347 SWAP2 SWAP1 PUSH2 0x1165 JUMP JUMPDEST PUSH2 0xF0B JUMP JUMPDEST STOP JUMPDEST PUSH1 0x1 SLOAD DUP2 JUMP JUMPDEST PUSH1 0x0 SLOAD DUP2 JUMP JUMPDEST PUSH2 0x362 PUSH2 0x106A JUMP JUMPDEST PUSH1 0x6 PUSH1 0x0 DUP4 DUP2 MSTORE PUSH1 0x20 ADD SWAP1 DUP2 MSTORE PUSH1 0x20 ADD PUSH1 0x0 KECCAK256 PUSH1 0x40 MLOAD DUP1 PUSH1 0x80 ADD PUSH1 0x40 MSTORE SWAP1 DUP2 PUSH1 0x0 DUP3 ADD SLOAD DUP2 MSTORE PUSH1 0x20 ADD PUSH1 0x1 DUP3 ADD SLOAD DUP2 MSTORE PUSH1 0x20 ADD PUSH1 0x2 DUP3 ADD DUP1 SLOAD PUSH2 0x3A4 SWAP1 PUSH2 0x176E JUMP JUMPDEST DUP1 PUSH1 0x1F ADD PUSH1 0x20 DUP1 SWAP2 DIV MUL PUSH1 0x20 ADD PUSH1 0x40 MLOAD SWAP1 DUP2 ADD PUSH1 0x40 MSTORE DUP1 SWAP3 SWAP2 SWAP1 DUP2 DUP2 MSTORE PUSH1 0x20 ADD DUP3 DUP1 SLOAD PUSH2 0x3D0 SWAP1 PUSH2 0x176E JUMP JUMPDEST DUP1 ISZERO PUSH2 0x41D JUMPI DUP1 PUSH1 0x1F LT PUSH2 0x3F2 JUMPI PUSH2 0x100 DUP1 DUP4 SLOAD DIV MUL DUP4 MSTORE SWAP2 PUSH1 0x20 ADD SWAP2 PUSH2 0x41D JUMP JUMPDEST DUP3 ADD SWAP2 SWAP1 PUSH1 0x0 MSTORE PUSH1 0x20 PUSH1 0x0 KECCAK256 SWAP1 JUMPDEST DUP2 SLOAD DUP2 MSTORE SWAP1 PUSH1 0x1 ADD SWAP1 PUSH1 0x20 ADD DUP1 DUP4 GT PUSH2 0x400 JUMPI DUP3 SWAP1 SUB PUSH1 0x1F AND DUP3 ADD SWAP2 JUMPDEST POP POP POP POP POP DUP2 MSTORE PUSH1 0x20 ADD PUSH1 0x3 DUP3 ADD PUSH1 0x0 SWAP1 SLOAD SWAP1 PUSH2 0x100 EXP SWAP1 DIV PUSH1 0xFF AND ISZERO ISZERO ISZERO ISZERO DUP2 MSTORE POP POP SWAP1 POP SWAP2 SWAP1 POP JUMP JUMPDEST PUSH1 0x0 SLOAD TIMESTAMP GT PUSH2 0x48C JUMPI PUSH1 0x40 MLOAD PUSH32 0x8C379A000000000000000000000000000000000000000000000000000000000 DUP2 MSTORE PUSH1 0x4 ADD PUSH2 0x483 SWAP1 PUSH2 0x17EB JUMP JUMPDEST PUSH1 0x40 MLOAD DUP1 SWAP2 SUB SWAP1 REVERT JUMPDEST PUSH1 0x3 PUSH1 0x0 SWAP1 SLOAD SWAP1 PUSH2 0x100 EXP SWAP1 DIV PUSH20 0xFFFFFFFFFFFFFFFFFFFFFFFFFFFFFFFFFFFFFFFF AND PUSH20 0xFFFFFFFFFFFFFFFFFFFFFFFFFFFFFFFFFFFFFFFF AND CALLER PUSH20 0xFFFFFFFFFFFFFFFFFFFFFFFFFFFFFFFFFFFFFFFF AND EQ PUSH2 0x51C JUMPI PUSH1 0x40 MLOAD PUSH32 0x8C379A000000000000000000000000000000000000000000000000000000000 DUP2 MSTORE PUSH1 0x4 ADD PUSH2 0x513 SWAP1 PUSH2 0x1857 JUMP JUMPDEST PUSH1 0x40 MLOAD DUP1 SWAP2 SUB SWAP1 REVERT JUMPDEST PUSH1 0x0 PUSH1 0x4 PUSH1 0x0 SWAP1 SLOAD SWAP1 PUSH2 0x100 EXP SWAP1 DIV PUSH20 0xFFFFFFFFFFFFFFFFFFFFFFFFFFFFFFFFFFFFFFFF AND PUSH20 0xFFFFFFFFFFFFFFFFFFFFFFFFFFFFFFFFFFFFFFFF AND PUSH4 0x70A08231 ADDRESS PUSH1 0x40 MLOAD DUP3 PUSH4 0xFFFFFFFF AND PUSH1 0xE0 SHL DUP2 MSTORE PUSH1 0x4 ADD PUSH2 0x579 SWAP2 SWAP1 PUSH2 0x1898 JUMP JUMPDEST PUSH1 0x20 PUSH1 0x40 MLOAD DUP1 DUP4 SUB DUP2 DUP7 GAS STATICCALL ISZERO DUP1 ISZERO PUSH2 0x596 JUMPI RETURNDATASIZE PUSH1 0x0 DUP1 RETURNDATACOPY RETURNDATASIZE PUSH1 0x0 REVERT JUMPDEST POP POP POP POP PUSH1 0x40 MLOAD RETURNDATASIZE PUSH1 0x1F NOT PUSH1 0x1F DUP3 ADD AND DUP3 ADD DUP1 PUSH1 0x40 MSTORE POP DUP2 ADD SWAP1 PUSH2 0x5BA SWAP2 SWAP1 PUSH2 0x18C8 JUMP JUMPDEST SWAP1 POP PUSH1 0x0 DUP2 SUB PUSH2 0x5F6 JUMPI PUSH1 0x40 MLOAD PUSH32 0x1EF4962600000000000000000000000000000000000000000000000000000000 DUP2 MSTORE PUSH1 0x4 ADD PUSH1 0x40 MLOAD DUP1 SWAP2 SUB SWAP1 REVERT JUMPDEST PUSH32 0xBF2ED60BD5B5965D685680C01195C9514E4382E28E3A5A2D2D5244BF59411B93 DUP2 TIMESTAMP PUSH1 0x40 MLOAD PUSH2 0x627 SWAP3 SWAP2 SWAP1 PUSH2 0x18F5 JUMP JUMPDEST PUSH1 0x40 MLOAD DUP1 SWAP2 SUB SWAP1 LOG1 PUSH1 0x0 PUSH1 0x4 PUSH1 0x0 SWAP1 SLOAD SWAP1 PUSH2 0x100 EXP SWAP1 DIV PUSH20 0xFFFFFFFFFFFFFFFFFFFFFFFFFFFFFFFFFFFFFFFF AND PUSH20 0xFFFFFFFFFFFFFFFFFFFFFFFFFFFFFFFFFFFFFFFF AND PUSH4 0xA9059CBB PUSH1 0x3 PUSH1 0x0 SWAP1 SLOAD SWAP1 PUSH2 0x100 EXP SWAP1 DIV PUSH20 0xFFFFFFFFFFFFFFFFFFFFFFFFFFFFFFFFFFFFFFFF AND DUP5 PUSH1 0x40 MLOAD DUP4 PUSH4 0xFFFFFFFF AND PUSH1 0xE0 SHL DUP2 MSTORE PUSH1 0x4 ADD PUSH2 0x6B0 SWAP3 SWAP2 SWAP1 PUSH2 0x193F JUMP JUMPDEST PUSH1 0x20 PUSH1 0x40 MLOAD DUP1 DUP4 SUB DUP2 PUSH1 0x0 DUP8 GAS CALL ISZERO DUP1 ISZERO PUSH2 0x6CF JUMPI RETURNDATASIZE PUSH1 0x0 DUP1 RETURNDATACOPY RETURNDATASIZE PUSH1 0x0 REVERT JUMPDEST POP POP POP POP PUSH1 0x40 MLOAD RETURNDATASIZE PUSH1 0x1F NOT PUSH1 0x1F DUP3 ADD AND DUP3 ADD DUP1 PUSH1 0x40 MSTORE POP DUP2 ADD SWAP1 PUSH2 0x6F3 SWAP2 SWAP1 PUSH2 0x1994 JUMP JUMPDEST SWAP1 POP DUP1 PUSH2 0x72C JUMPI PUSH1 0x40 MLOAD PUSH32 0xE465903E00000000000000000000000000000000000000000000000000000000 DUP2 MSTORE PUSH1 0x4 ADD PUSH1 0x40 MLOAD DUP1 SWAP2 SUB SWAP1 REVERT JUMPDEST POP POP JUMP JUMPDEST PUSH1 0x2 SLOAD DUP2 JUMP JUMPDEST PUSH1 0x7 PUSH1 0x20 MSTORE DUP1 PUSH1 0x0 MSTORE PUSH1 0x40 PUSH1 0x0 KECCAK256 PUSH1 0x0 SWAP2 POP SLOAD SWAP1 PUSH2 0x100 EXP SWAP1 DIV PUSH1 0xFF AND DUP2 JUMP JUMPDEST PUSH1 0x0 PUSH20 0xFFFFFFFFFFFFFFFFFFFFFFFFFFFFFFFFFFFFFFFF AND CALLER PUSH20 0xFFFFFFFFFFFFFFFFFFFFFFFFFFFFFFFFFFFFFFFF AND SUB PUSH2 0x7C5 JUMPI PUSH1 0x40 MLOAD PUSH32 0x8C379A000000000000000000000000000000000000000000000000000000000 DUP2 MSTORE PUSH1 0x4 ADD PUSH2 0x7BC SWAP1 PUSH2 0x1A0D JUMP JUMPDEST PUSH1 0x40 MLOAD DUP1 SWAP2 SUB SWAP1 REVERT JUMPDEST PUSH1 0x0 PUSH1 0x4 PUSH1 0x0 SWAP1 SLOAD SWAP1 PUSH2 0x100 EXP SWAP1 DIV PUSH20 0xFFFFFFFFFFFFFFFFFFFFFFFFFFFFFFFFFFFFFFFF AND PUSH20 0xFFFFFFFFFFFFFFFFFFFFFFFFFFFFFFFFFFFFFFFF AND PUSH4 0x70A08231 CALLER PUSH1 0x40 MLOAD DUP3 PUSH4 0xFFFFFFFF AND PUSH1 0xE0 SHL DUP2 MSTORE PUSH1 0x4 ADD PUSH2 0x822 SWAP2 SWAP1 PUSH2 0x1898 JUMP JUMPDEST PUSH1 0x20 PUSH1 0x40 MLOAD DUP1 DUP4 SUB DUP2 DUP7 GAS STATICCALL ISZERO DUP1 ISZERO PUSH2 0x83F JUMPI RETURNDATASIZE PUSH1 0x0 DUP1 RETURNDATACOPY RETURNDATASIZE PUSH1 0x0 REVERT JUMPDEST POP POP POP POP PUSH1 0x40 MLOAD RETURNDATASIZE PUSH1 0x1F NOT PUSH1 0x1F DUP3 ADD AND DUP3 ADD DUP1 PUSH1 0x40 MSTORE POP DUP2 ADD SWAP1 PUSH2 0x863 SWAP2 SWAP1 PUSH2 0x18C8 JUMP JUMPDEST GT PUSH2 0x8A3 JUMPI PUSH1 0x40 MLOAD PUSH32 0x8C379A000000000000000000000000000000000000000000000000000000000 DUP2 MSTORE PUSH1 0x4 ADD PUSH2 0x89A SWAP1 PUSH2 0x1A79 JUMP JUMPDEST PUSH1 0x40 MLOAD DUP1 SWAP2 SUB SWAP1 REVERT JUMPDEST PUSH1 0x0 DUP2 SUB PUSH2 0x8DD JUMPI PUSH1 0x40 MLOAD PUSH32 0x1EF4962600000000000000000000000000000000000000000000000000000000 DUP2 MSTORE PUSH1 0x4 ADD PUSH1 0x40 MLOAD DUP1 SWAP2 SUB SWAP1 REVERT JUMPDEST PUSH1 0x0 PUSH1 0x4 PUSH1 0x0 SWAP1 SLOAD SWAP1 PUSH2 0x100 EXP SWAP1 DIV PUSH20 0xFFFFFFFFFFFFFFFFFFFFFFFFFFFFFFFFFFFFFFFF AND PUSH20 0xFFFFFFFFFFFFFFFFFFFFFFFFFFFFFFFFFFFFFFFF AND PUSH4 0x23B872DD CALLER ADDRESS DUP6 PUSH1 0x40 MLOAD DUP5 PUSH4 0xFFFFFFFF AND PUSH1 0xE0 SHL DUP2 MSTORE PUSH1 0x4 ADD PUSH2 0x93E SWAP4 SWAP3 SWAP2 SWAP1 PUSH2 0x1A99 JUMP JUMPDEST PUSH1 0x20 PUSH1 0x40 MLOAD DUP1 DUP4 SUB DUP2 PUSH1 0x0 DUP8 GAS CALL ISZERO DUP1 ISZERO PUSH2 0x95D JUMPI RETURNDATASIZE PUSH1 0x0 DUP1 RETURNDATACOPY RETURNDATASIZE PUSH1 0x0 REVERT JUMPDEST POP POP POP POP PUSH1 0x40 MLOAD RETURNDATASIZE PUSH1 0x1F NOT PUSH1 0x1F DUP3 ADD AND DUP3 ADD DUP1 PUSH1 0x40 MSTORE POP DUP2 ADD SWAP1 PUSH2 0x981 SWAP2 SWAP1 PUSH2 0x1994 JUMP JUMPDEST SWAP1 POP DUP1 PUSH2 0x9BA JUMPI PUSH1 0x40 MLOAD PUSH32 0xE465903E00000000000000000000000000000000000000000000000000000000 DUP2 MSTORE PUSH1 0x4 ADD PUSH1 0x40 MLOAD DUP1 SWAP2 SUB SWAP1 REVERT JUMPDEST DUP2 PUSH1 0x2 PUSH1 0x0 DUP3 DUP3 SLOAD PUSH2 0x9CC SWAP2 SWAP1 PUSH2 0x1AFF JUMP JUMPDEST SWAP3 POP POP DUP2 SWAP1 SSTORE POP POP POP JUMP JUMPDEST PUSH1 0x3 PUSH1 0x0 SWAP1 SLOAD SWAP1 PUSH2 0x100 EXP SWAP1 DIV PUSH20 0xFFFFFFFFFFFFFFFFFFFFFFFFFFFFFFFFFFFFFFFF AND DUP2 JUMP JUMPDEST PUSH1 0x4 PUSH1 0x0 SWAP1 SLOAD SWAP1 PUSH2 0x100 EXP SWAP1 DIV PUSH20 0xFFFFFFFFFFFFFFFFFFFFFFFFFFFFFFFFFFFFFFFF AND DUP2 JUMP JUMPDEST PUSH1 0x60 PUSH1 0x5 DUP1 SLOAD DUP1 PUSH1 0x20 MUL PUSH1 0x20 ADD PUSH1 0x40 MLOAD SWAP1 DUP2 ADD PUSH1 0x40 MSTORE DUP1 SWAP3 SWAP2 SWAP1 DUP2 DUP2 MSTORE PUSH1 0x20 ADD PUSH1 0x0 SWAP1 JUMPDEST DUP3 DUP3 LT ISZERO PUSH2 0xB3A JUMPI DUP4 DUP3 SWAP1 PUSH1 0x0 MSTORE PUSH1 0x20 PUSH1 0x0 KECCAK256 SWAP1 PUSH1 0x4 MUL ADD PUSH1 0x40 MLOAD DUP1 PUSH1 0x80 ADD PUSH1 0x40 MSTORE SWAP1 DUP2 PUSH1 0x0 DUP3 ADD SLOAD DUP2 MSTORE PUSH1 0x20 ADD PUSH1 0x1 DUP3 ADD SLOAD DUP2 MSTORE PUSH1 0x20 ADD PUSH1 0x2 DUP3 ADD DUP1 SLOAD PUSH2 0xA8E SWAP1 PUSH2 0x176E JUMP JUMPDEST DUP1 PUSH1 0x1F ADD PUSH1 0x20 DUP1 SWAP2 DIV MUL PUSH1 0x20 ADD PUSH1 0x40 MLOAD SWAP1 DUP2 ADD PUSH1 0x40 MSTORE DUP1 SWAP3 SWAP2 SWAP1 DUP2 DUP2 MSTORE PUSH1 0x20 ADD DUP3 DUP1 SLOAD PUSH2 0xABA SWAP1 PUSH2 0x176E JUMP JUMPDEST DUP1 ISZERO PUSH2 0xB07 JUMPI DUP1 PUSH1 0x1F LT PUSH2 0xADC JUMPI PUSH2 0x100 DUP1 DUP4 SLOAD DIV MUL DUP4 MSTORE SWAP2 PUSH1 0x20 ADD SWAP2 PUSH2 0xB07 JUMP JUMPDEST DUP3 ADD SWAP2 SWAP1 PUSH1 0x0 MSTORE PUSH1 0x20 PUSH1 0x0 KECCAK256 SWAP1 JUMPDEST DUP2 SLOAD DUP2 MSTORE SWAP1 PUSH1 0x1 ADD SWAP1 PUSH1 0x20 ADD DUP1 DUP4 GT PUSH2 0xAEA JUMPI DUP3 SWAP1 SUB PUSH1 0x1F AND DUP3 ADD SWAP2 JUMPDEST POP POP POP POP POP DUP2 MSTORE PUSH1 0x20 ADD PUSH1 0x3 DUP3 ADD PUSH1 0x0 SWAP1 SLOAD SWAP1 PUSH2 0x100 EXP SWAP1 DIV PUSH1 0xFF AND ISZERO ISZERO ISZERO ISZERO DUP2 MSTORE POP POP DUP2 MSTORE PUSH1 0x20 ADD SWAP1 PUSH1 0x1 ADD SWAP1 PUSH2 0xA47 JUMP JUMPDEST POP POP POP POP SWAP1 POP SWAP1 JUMP JUMPDEST PUSH1 0x1 ISZERO ISZERO PUSH1 0x6 PUSH1 0x0 PUSH1 0x1 SLOAD DUP2 MSTORE PUSH1 0x20 ADD SWAP1 DUP2 MSTORE PUSH1 0x20 ADD PUSH1 0x0 KECCAK256 PUSH1 0x3 ADD PUSH1 0x0 SWAP1 SLOAD SWAP1 PUSH2 0x100 EXP SWAP1 DIV PUSH1 0xFF AND ISZERO ISZERO SUB PUSH2 0xBAF JUMPI PUSH1 0x40 MLOAD PUSH32 0x8C379A000000000000000000000000000000000000000000000000000000000 DUP2 MSTORE PUSH1 0x4 ADD PUSH2 0xBA6 SWAP1 PUSH2 0x1B7F JUMP JUMPDEST PUSH1 0x40 MLOAD DUP1 SWAP2 SUB SWAP1 REVERT JUMPDEST PUSH1 0x0 PUSH1 0x6 PUSH1 0x0 PUSH1 0x1 SLOAD DUP2 MSTORE PUSH1 0x20 ADD SWAP1 DUP2 MSTORE PUSH1 0x20 ADD PUSH1 0x0 KECCAK256 PUSH1 0x40 MLOAD DUP1 PUSH1 0x80 ADD PUSH1 0x40 MSTORE SWAP1 DUP2 PUSH1 0x0 DUP3 ADD SLOAD DUP2 MSTORE PUSH1 0x20 ADD PUSH1 0x1 DUP3 ADD SLOAD DUP2 MSTORE PUSH1 0x20 ADD PUSH1 0x2 DUP3 ADD DUP1 SLOAD PUSH2 0xBF5 SWAP1 PUSH2 0x176E JUMP JUMPDEST DUP1 PUSH1 0x1F ADD PUSH1 0x20 DUP1 SWAP2 DIV MUL PUSH1 0x20 ADD PUSH1 0x40 MLOAD SWAP1 DUP2 ADD PUSH1 0x40 MSTORE DUP1 SWAP3 SWAP2 SWAP1 DUP2 DUP2 MSTORE PUSH1 0x20 ADD DUP3 DUP1 SLOAD PUSH2 0xC21 SWAP1 PUSH2 0x176E JUMP JUMPDEST DUP1 ISZERO PUSH2 0xC6E JUMPI DUP1 PUSH1 0x1F LT PUSH2 0xC43 JUMPI PUSH2 0x100 DUP1 DUP4 SLOAD DIV MUL DUP4 MSTORE SWAP2 PUSH1 0x20 ADD SWAP2 PUSH2 0xC6E JUMP JUMPDEST DUP3 ADD SWAP2 SWAP1 PUSH1 0x0 MSTORE PUSH1 0x20 PUSH1 0x0 KECCAK256 SWAP1 JUMPDEST DUP2 SLOAD DUP2 MSTORE SWAP1 PUSH1 0x1 ADD SWAP1 PUSH1 0x20 ADD DUP1 DUP4 GT PUSH2 0xC51 JUMPI DUP3 SWAP1 SUB PUSH1 0x1F AND DUP3 ADD SWAP2 JUMPDEST POP POP POP POP POP DUP2 MSTORE PUSH1 0x20 ADD PUSH1 0x3 DUP3 ADD PUSH1 0x0 SWAP1 SLOAD SWAP1 PUSH2 0x100 EXP SWAP1 DIV PUSH1 0xFF AND ISZERO ISZERO ISZERO ISZERO DUP2 MSTORE POP POP SWAP1 POP PUSH1 0x40 MLOAD DUP1 PUSH1 0x80 ADD PUSH1 0x40 MSTORE DUP1 PUSH1 0x1 SLOAD DUP2 MSTORE PUSH1 0x20 ADD DUP4 DUP2 MSTORE PUSH1 0x20 ADD DUP5 DUP2 MSTORE PUSH1 0x20 ADD PUSH1 0x1 ISZERO ISZERO DUP2 MSTORE POP SWAP1 POP PUSH1 0x5 DUP2 SWAP1 DUP1 PUSH1 0x1 DUP2 SLOAD ADD DUP1 DUP3 SSTORE DUP1 SWAP2 POP POP PUSH1 0x1 SWAP1 SUB SWAP1 PUSH1 0x0 MSTORE PUSH1 0x20 PUSH1 0x0 KECCAK256 SWAP1 PUSH1 0x4 MUL ADD PUSH1 0x0 SWAP1 SWAP2 SWAP1 SWAP2 SWAP1 SWAP2 POP PUSH1 0x0 DUP3 ADD MLOAD DUP2 PUSH1 0x0 ADD SSTORE PUSH1 0x20 DUP3 ADD MLOAD DUP2 PUSH1 0x1 ADD SSTORE PUSH1 0x40 DUP3 ADD MLOAD DUP2 PUSH1 0x2 ADD SWAP1 DUP2 PUSH2 0xD11 SWAP2 SWAP1 PUSH2 0x1D41 JUMP JUMPDEST POP PUSH1 0x60 DUP3 ADD MLOAD DUP2 PUSH1 0x3 ADD PUSH1 0x0 PUSH2 0x100 EXP DUP2 SLOAD DUP2 PUSH1 0xFF MUL NOT AND SWAP1 DUP4 ISZERO ISZERO MUL OR SWAP1 SSTORE POP POP POP DUP3 PUSH1 0x40 MLOAD PUSH2 0xD42 SWAP2 SWAP1 PUSH2 0x1E4F JUMP JUMPDEST PUSH1 0x40 MLOAD DUP1 SWAP2 SUB SWAP1 KECCAK256 DUP3 PUSH1 0x1 SLOAD PUSH32 0xF940D73082329298BB2B60070647D4264F2666F40A848526DD284FF4240923E8 PUSH1 0x1 PUSH1 0x40 MLOAD PUSH2 0xD7E SWAP2 SWAP1 PUSH2 0x12E0 JUMP JUMPDEST PUSH1 0x40 MLOAD DUP1 SWAP2 SUB SWAP1 LOG4 PUSH1 0x1 PUSH1 0x0 DUP2 SLOAD DUP1 SWAP3 SWAP2 SWAP1 PUSH2 0xD99 SWAP1 PUSH2 0x1E66 JUMP JUMPDEST SWAP2 SWAP1 POP SSTORE POP POP POP POP JUMP JUMPDEST PUSH1 0x0 PUSH1 0x4 PUSH1 0x0 SWAP1 SLOAD SWAP1 PUSH2 0x100 EXP SWAP1 DIV PUSH20 0xFFFFFFFFFFFFFFFFFFFFFFFFFFFFFFFFFFFFFFFF AND PUSH20 0xFFFFFFFFFFFFFFFFFFFFFFFFFFFFFFFFFFFFFFFF AND PUSH4 0x70A08231 ADDRESS PUSH1 0x40 MLOAD DUP3 PUSH4 0xFFFFFFFF AND PUSH1 0xE0 SHL DUP2 MSTORE PUSH1 0x4 ADD PUSH2 0xE00 SWAP2 SWAP1 PUSH2 0x1898 JUMP JUMPDEST PUSH1 0x20 PUSH1 0x40 MLOAD DUP1 DUP4 SUB DUP2 DUP7 GAS STATICCALL ISZERO DUP1 ISZERO PUSH2 0xE1D JUMPI RETURNDATASIZE PUSH1 0x0 DUP1 RETURNDATACOPY RETURNDATASIZE PUSH1 0x0 REVERT JUMPDEST POP POP POP POP PUSH1 0x40 MLOAD RETURNDATASIZE PUSH1 0x1F NOT PUSH1 0x1F DUP3 ADD AND DUP3 ADD DUP1 PUSH1 0x40 MSTORE POP DUP2 ADD SWAP1 PUSH2 0xE41 SWAP2 SWAP1 PUSH2 0x18C8 JUMP JUMPDEST SWAP1 POP SWAP1 JUMP JUMPDEST PUSH1 0x6 PUSH1 0x20 MSTORE DUP1 PUSH1 0x0 MSTORE PUSH1 0x40 PUSH1 0x0 KECCAK256 PUSH1 0x0 SWAP2 POP SWAP1 POP DUP1 PUSH1 0x0 ADD SLOAD SWAP1 DUP1 PUSH1 0x1 ADD SLOAD SWAP1 DUP1 PUSH1 0x2 ADD DUP1 SLOAD PUSH2 0xE75 SWAP1 PUSH2 0x176E JUMP JUMPDEST DUP1 PUSH1 0x1F ADD PUSH1 0x20 DUP1 SWAP2 DIV MUL PUSH1 0x20 ADD PUSH1 0x40 MLOAD SWAP1 DUP2 ADD PUSH1 0x40 MSTORE DUP1 SWAP3 SWAP2 SWAP1 DUP2 DUP2 MSTORE PUSH1 0x20 ADD DUP3 DUP1 SLOAD PUSH2 0xEA1 SWAP1 PUSH2 0x176E JUMP JUMPDEST DUP1 ISZERO PUSH2 0xEEE JUMPI DUP1 PUSH1 0x1F LT PUSH2 0xEC3 JUMPI PUSH2 0x100 DUP1 DUP4 SLOAD DIV MUL DUP4 MSTORE SWAP2 PUSH1 0x20 ADD SWAP2 PUSH2 0xEEE JUMP JUMPDEST DUP3 ADD SWAP2 SWAP1 PUSH1 0x0 MSTORE PUSH1 0x20 PUSH1 0x0 KECCAK256 SWAP1 JUMPDEST DUP2 SLOAD DUP2 MSTORE SWAP1 PUSH1 0x1 ADD SWAP1 PUSH1 0x20 ADD DUP1 DUP4 GT PUSH2 0xED1 JUMPI DUP3 SWAP1 SUB PUSH1 0x1F AND DUP3 ADD SWAP2 JUMPDEST POP POP POP POP POP SWAP1 DUP1 PUSH1 0x3 ADD PUSH1 0x0 SWAP1 SLOAD SWAP1 PUSH2 0x100 EXP SWAP1 DIV PUSH1 0xFF AND SWAP1 POP DUP5 JUMP JUMPDEST PUSH1 0x3 PUSH1 0x0 SWAP1 SLOAD SWAP1 PUSH2 0x100 EXP SWAP1 DIV PUSH20 0xFFFFFFFFFFFFFFFFFFFFFFFFFFFFFFFFFFFFFFFF AND PUSH20 0xFFFFFFFFFFFFFFFFFFFFFFFFFFFFFFFFFFFFFFFF AND CALLER PUSH20 0xFFFFFFFFFFFFFFFFFFFFFFFFFFFFFFFFFFFFFFFF AND SUB PUSH2 0xF92 JUMPI PUSH1 0x40 MLOAD PUSH32 0x251C9D6300000000000000000000000000000000000000000000000000000000 DUP2 MSTORE PUSH1 0x4 ADD PUSH1 0x40 MLOAD DUP1 SWAP2 SUB SWAP1 REVERT JUMPDEST PUSH1 0x1 ISZERO ISZERO PUSH1 0x7 PUSH1 0x0 DUP4 DUP2 MSTORE PUSH1 0x20 ADD SWAP1 DUP2 MSTORE PUSH1 0x20 ADD PUSH1 0x0 KECCAK256 PUSH1 0x0 SWAP1 SLOAD SWAP1 PUSH2 0x100 EXP SWAP1 DIV PUSH1 0xFF AND ISZERO ISZERO SUB PUSH2 0xFF0 JUMPI PUSH1 0x40 MLOAD PUSH32 0x1DCC85AE00000000000000000000000000000000000000000000000000000000 DUP2 MSTORE PUSH1 0x4 ADD PUSH1 0x40 MLOAD DUP1 SWAP2 SUB SWAP1 REVERT JUMPDEST DUP1 PUSH32 0xA54EDA4149A0FB9258911733973ECF1F6762357ED371FC6D1E63123BBCE23BED PUSH1 0x40 MLOAD PUSH1 0x40 MLOAD DUP1 SWAP2 SUB SWAP1 LOG2 PUSH1 0x6 PUSH1 0x0 DUP3 DUP2 MSTORE PUSH1 0x20 ADD SWAP1 DUP2 MSTORE PUSH1 0x20 ADD PUSH1 0x0 KECCAK256 PUSH1 0x0 DUP1 DUP3 ADD PUSH1 0x0 SWAP1 SSTORE PUSH1 0x1 DUP3 ADD PUSH1 0x0 SWAP1 SSTORE PUSH1 0x2 DUP3 ADD PUSH1 0x0 PUSH2 0x1051 SWAP2 SWAP1 PUSH2 0x1094 JUMP JUMPDEST PUSH1 0x3 DUP3 ADD PUSH1 0x0 PUSH2 0x100 EXP DUP2 SLOAD SWAP1 PUSH1 0xFF MUL NOT AND SWAP1 SSTORE POP POP POP JUMP JUMPDEST PUSH1 0x40 MLOAD DUP1 PUSH1 0x80 ADD PUSH1 0x40 MSTORE DUP1 PUSH1 0x0 DUP2 MSTORE PUSH1 0x20 ADD PUSH1 0x0 DUP2 MSTORE PUSH1 0x20 ADD PUSH1 0x60 DUP2 MSTORE PUSH1 0x20 ADD PUSH1 0x0 ISZERO ISZERO DUP2 MSTORE POP SWAP1 JUMP JUMPDEST POP DUP1 SLOAD PUSH2 0x10A0 SWAP1 PUSH2 0x176E JUMP JUMPDEST PUSH1 0x0 DUP3 SSTORE DUP1 PUSH1 0x1F LT PUSH2 0x10B2 JUMPI POP PUSH2 0x10D1 JUMP JUMPDEST PUSH1 0x1F ADD PUSH1 0x20 SWAP1 DIV SWAP1 PUSH1 0x0 MSTORE PUSH1 0x20 PUSH1 0x0 KECCAK256 SWAP1 DUP2 ADD SWAP1 PUSH2 0x10D0 SWAP2 SWAP1 PUSH2 0x10D4 JUMP JUMPDEST JUMPDEST POP JUMP JUMPDEST JUMPDEST DUP1 DUP3 GT ISZERO PUSH2 0x10ED JUMPI PUSH1 0x0 DUP2 PUSH1 0x0 SWAP1 SSTORE POP PUSH1 0x1 ADD PUSH2 0x10D5 JUMP JUMPDEST POP SWAP1 JUMP JUMPDEST PUSH1 0x0 DUP2 SWAP1 POP SWAP2 SWAP1 POP JUMP JUMPDEST PUSH2 0x1104 DUP2 PUSH2 0x10F1 JUMP JUMPDEST DUP3 MSTORE POP POP JUMP JUMPDEST PUSH1 0x0 PUSH1 0x20 DUP3 ADD SWAP1 POP PUSH2 0x111F PUSH1 0x0 DUP4 ADD DUP5 PUSH2 0x10FB JUMP JUMPDEST SWAP3 SWAP2 POP POP JUMP JUMPDEST PUSH1 0x0 PUSH1 0x40 MLOAD SWAP1 POP SWAP1 JUMP JUMPDEST PUSH1 0x0 DUP1 REVERT JUMPDEST PUSH1 0x0 DUP1 REVERT JUMPDEST PUSH2 0x1142 DUP2 PUSH2 0x10F1 JUMP JUMPDEST DUP2 EQ PUSH2 0x114D JUMPI PUSH1 0x0 DUP1 REVERT JUMPDEST POP JUMP JUMPDEST PUSH1 0x0 DUP2 CALLDATALOAD SWAP1 POP PUSH2 0x115F DUP2 PUSH2 0x1139 JUMP JUMPDEST SWAP3 SWAP2 POP POP JUMP JUMPDEST PUSH1 0x0 PUSH1 0x20 DUP3 DUP5 SUB SLT ISZERO PUSH2 0x117B JUMPI PUSH2 0x117A PUSH2 0x112F JUMP JUMPDEST JUMPDEST PUSH1 0x0 PUSH2 0x1189 DUP5 DUP3 DUP6 ADD PUSH2 0x1150 JUMP JUMPDEST SWAP2 POP POP SWAP3 SWAP2 POP POP JUMP JUMPDEST PUSH2 0x119B DUP2 PUSH2 0x10F1 JUMP JUMPDEST DUP3 MSTORE POP POP JUMP JUMPDEST PUSH1 0x0 DUP2 MLOAD SWAP1 POP SWAP2 SWAP1 POP JUMP JUMPDEST PUSH1 0x0 DUP3 DUP3 MSTORE PUSH1 0x20 DUP3 ADD SWAP1 POP SWAP3 SWAP2 POP POP JUMP JUMPDEST PUSH1 0x0 JUMPDEST DUP4 DUP2 LT ISZERO PUSH2 0x11DB JUMPI DUP1 DUP3 ADD MLOAD DUP2 DUP5 ADD MSTORE PUSH1 0x20 DUP2 ADD SWAP1 POP PUSH2 0x11C0 JUMP JUMPDEST PUSH1 0x0 DUP5 DUP5 ADD MSTORE POP POP POP POP JUMP JUMPDEST PUSH1 0x0 PUSH1 0x1F NOT PUSH1 0x1F DUP4 ADD AND SWAP1 POP SWAP2 SWAP1 POP JUMP JUMPDEST PUSH1 0x0 PUSH2 0x1203 DUP3 PUSH2 0x11A1 JUMP JUMPDEST PUSH2 0x120D DUP2 DUP6 PUSH2 0x11AC JUMP JUMPDEST SWAP4 POP PUSH2 0x121D DUP2 DUP6 PUSH1 0x20 DUP7 ADD PUSH2 0x11BD JUMP JUMPDEST PUSH2 0x1226 DUP2 PUSH2 0x11E7 JUMP JUMPDEST DUP5 ADD SWAP2 POP POP SWAP3 SWAP2 POP POP JUMP JUMPDEST PUSH1 0x0 DUP2 ISZERO ISZERO SWAP1 POP SWAP2 SWAP1 POP JUMP JUMPDEST PUSH2 0x1246 DUP2 PUSH2 0x1231 JUMP JUMPDEST DUP3 MSTORE POP POP JUMP JUMPDEST PUSH1 0x0 PUSH1 0x80 DUP4 ADD PUSH1 0x0 DUP4 ADD MLOAD PUSH2 0x1264 PUSH1 0x0 DUP7 ADD DUP3 PUSH2 0x1192 JUMP JUMPDEST POP PUSH1 0x20 DUP4 ADD MLOAD PUSH2 0x1277 PUSH1 0x20 DUP7 ADD DUP3 PUSH2 0x1192 JUMP JUMPDEST POP PUSH1 0x40 DUP4 ADD MLOAD DUP5 DUP3 SUB PUSH1 0x40 DUP7 ADD MSTORE PUSH2 0x128F DUP3 DUP3 PUSH2 0x11F8 JUMP JUMPDEST SWAP2 POP POP PUSH1 0x60 DUP4 ADD MLOAD PUSH2 0x12A4 PUSH1 0x60 DUP7 ADD DUP3 PUSH2 0x123D JUMP JUMPDEST POP DUP1 SWAP2 POP POP SWAP3 SWAP2 POP POP JUMP JUMPDEST PUSH1 0x0 PUSH1 0x20 DUP3 ADD SWAP1 POP DUP2 DUP2 SUB PUSH1 0x0 DUP4 ADD MSTORE PUSH2 0x12C9 DUP2 DUP5 PUSH2 0x124C JUMP JUMPDEST SWAP1 POP SWAP3 SWAP2 POP POP JUMP JUMPDEST PUSH2 0x12DA DUP2 PUSH2 0x1231 JUMP JUMPDEST DUP3 MSTORE POP POP JUMP JUMPDEST PUSH1 0x0 PUSH1 0x20 DUP3 ADD SWAP1 POP PUSH2 0x12F5 PUSH1 0x0 DUP4 ADD DUP5 PUSH2 0x12D1 JUMP JUMPDEST SWAP3 SWAP2 POP POP JUMP JUMPDEST PUSH1 0x0 PUSH20 0xFFFFFFFFFFFFFFFFFFFFFFFFFFFFFFFFFFFFFFFF DUP3 AND SWAP1 POP SWAP2 SWAP1 POP JUMP JUMPDEST PUSH1 0x0 PUSH2 0x1326 DUP3 PUSH2 0x12FB JUMP JUMPDEST SWAP1 POP SWAP2 SWAP1 POP JUMP JUMPDEST PUSH2 0x1336 DUP2 PUSH2 0x131B JUMP JUMPDEST DUP3 MSTORE POP POP JUMP JUMPDEST PUSH1 0x0 PUSH1 0x20 DUP3 ADD SWAP1 POP PUSH2 0x1351 PUSH1 0x0 DUP4 ADD DUP5 PUSH2 0x132D JUMP JUMPDEST SWAP3 SWAP2 POP POP JUMP JUMPDEST PUSH1 0x0 DUP2 SWAP1 POP SWAP2 SWAP1 POP JUMP JUMPDEST PUSH1 0x0 PUSH2 0x137C PUSH2 0x1377 PUSH2 0x1372 DUP5 PUSH2 0x12FB JUMP JUMPDEST PUSH2 0x1357 JUMP JUMPDEST PUSH2 0x12FB JUMP JUMPDEST SWAP1 POP SWAP2 SWAP1 POP JUMP JUMPDEST PUSH1 0x0 PUSH2 0x138E DUP3 PUSH2 0x1361 JUMP JUMPDEST SWAP1 POP SWAP2 SWAP1 POP JUMP JUMPDEST PUSH1 0x0 PUSH2 0x13A0 DUP3 PUSH2 0x1383 JUMP JUMPDEST SWAP1 POP SWAP2 SWAP1 POP JUMP JUMPDEST PUSH2 0x13B0 DUP2 PUSH2 0x1395 JUMP JUMPDEST DUP3 MSTORE POP POP JUMP JUMPDEST PUSH1 0x0 PUSH1 0x20 DUP3 ADD SWAP1 POP PUSH2 0x13CB PUSH1 0x0 DUP4 ADD DUP5 PUSH2 0x13A7 JUMP JUMPDEST SWAP3 SWAP2 POP POP JUMP JUMPDEST PUSH1 0x0 DUP2 MLOAD SWAP1 POP SWAP2 SWAP1 POP JUMP JUMPDEST PUSH1 0x0 DUP3 DUP3 MSTORE PUSH1 0x20 DUP3 ADD SWAP1 POP SWAP3 SWAP2 POP POP JUMP JUMPDEST PUSH1 0x0 DUP2 SWAP1 POP PUSH1 0x20 DUP3 ADD SWAP1 POP SWAP2 SWAP1 POP JUMP JUMPDEST PUSH1 0x0 PUSH1 0x80 DUP4 ADD PUSH1 0x0 DUP4 ADD MLOAD PUSH2 0x1415 PUSH1 0x0 DUP7 ADD DUP3 PUSH2 0x1192 JUMP JUMPDEST POP PUSH1 0x20 DUP4 ADD MLOAD PUSH2 0x1428 PUSH1 0x20 DUP7 ADD DUP3 PUSH2 0x1192 JUMP JUMPDEST POP PUSH1 0x40 DUP4 ADD MLOAD DUP5 DUP3 SUB PUSH1 0x40 DUP7 ADD MSTORE PUSH2 0x1440 DUP3 DUP3 PUSH2 0x11F8 JUMP JUMPDEST SWAP2 POP POP PUSH1 0x60 DUP4 ADD MLOAD PUSH2 0x1455 PUSH1 0x60 DUP7 ADD DUP3 PUSH2 0x123D JUMP JUMPDEST POP DUP1 SWAP2 POP POP SWAP3 SWAP2 POP POP JUMP JUMPDEST PUSH1 0x0 PUSH2 0x146C DUP4 DUP4 PUSH2 0x13FD JUMP JUMPDEST SWAP1 POP SWAP3 SWAP2 POP POP JUMP JUMPDEST PUSH1 0x0 PUSH1 0x20 DUP3 ADD SWAP1 POP SWAP2 SWAP1 POP JUMP JUMPDEST PUSH1 0x0 PUSH2 0x148C DUP3 PUSH2 0x13D1 JUMP JUMPDEST PUSH2 0x1496 DUP2 DUP6 PUSH2 0x13DC JUMP JUMPDEST SWAP4 POP DUP4 PUSH1 0x20 DUP3 MUL DUP6 ADD PUSH2 0x14A8 DUP6 PUSH2 0x13ED JUMP JUMPDEST DUP1 PUSH1 0x0 JUMPDEST DUP6 DUP2 LT ISZERO PUSH2 0x14E4 JUMPI DUP5 DUP5 SUB DUP10 MSTORE DUP2 MLOAD PUSH2 0x14C5 DUP6 DUP3 PUSH2 0x1460 JUMP JUMPDEST SWAP5 POP PUSH2 0x14D0 DUP4 PUSH2 0x1474 JUMP JUMPDEST SWAP3 POP PUSH1 0x20 DUP11 ADD SWAP10 POP POP PUSH1 0x1 DUP2 ADD SWAP1 POP PUSH2 0x14AC JUMP JUMPDEST POP DUP3 SWAP8 POP DUP8 SWAP6 POP POP POP POP POP POP SWAP3 SWAP2 POP POP JUMP JUMPDEST PUSH1 0x0 PUSH1 0x20 DUP3 ADD SWAP1 POP DUP2 DUP2 SUB PUSH1 0x0 DUP4 ADD MSTORE PUSH2 0x1510 DUP2 DUP5 PUSH2 0x1481 JUMP JUMPDEST SWAP1 POP SWAP3 SWAP2 POP POP JUMP JUMPDEST PUSH1 0x0 DUP1 REVERT JUMPDEST PUSH1 0x0 DUP1 REVERT JUMPDEST PUSH32 0x4E487B7100000000000000000000000000000000000000000000000000000000 PUSH1 0x0 MSTORE PUSH1 0x41 PUSH1 0x4 MSTORE PUSH1 0x24 PUSH1 0x0 REVERT JUMPDEST PUSH2 0x155A DUP3 PUSH2 0x11E7 JUMP JUMPDEST DUP2 ADD DUP2 DUP2 LT PUSH8 0xFFFFFFFFFFFFFFFF DUP3 GT OR ISZERO PUSH2 0x1579 JUMPI PUSH2 0x1578 PUSH2 0x1522 JUMP JUMPDEST JUMPDEST DUP1 PUSH1 0x40 MSTORE POP POP POP JUMP JUMPDEST PUSH1 0x0 PUSH2 0x158C PUSH2 0x1125 JUMP JUMPDEST SWAP1 POP PUSH2 0x1598 DUP3 DUP3 PUSH2 0x1551 JUMP JUMPDEST SWAP2 SWAP1 POP JUMP JUMPDEST PUSH1 0x0 PUSH8 0xFFFFFFFFFFFFFFFF DUP3 GT ISZERO PUSH2 0x15B8 JUMPI PUSH2 0x15B7 PUSH2 0x1522 JUMP JUMPDEST JUMPDEST PUSH2 0x15C1 DUP3 PUSH2 0x11E7 JUMP JUMPDEST SWAP1 POP PUSH1 0x20 DUP2 ADD SWAP1 POP SWAP2 SWAP1 POP JUMP JUMPDEST DUP3 DUP2 DUP4 CALLDATACOPY PUSH1 0x0 DUP4 DUP4 ADD MSTORE POP POP POP JUMP JUMPDEST PUSH1 0x0 PUSH2 0x15F0 PUSH2 0x15EB DUP5 PUSH2 0x159D JUMP JUMPDEST PUSH2 0x1582 JUMP JUMPDEST SWAP1 POP DUP3 DUP2 MSTORE PUSH1 0x20 DUP2 ADD DUP5 DUP5 DUP5 ADD GT ISZERO PUSH2 0x160C JUMPI PUSH2 0x160B PUSH2 0x151D JUMP JUMPDEST JUMPDEST PUSH2 0x1617 DUP5 DUP3 DUP6 PUSH2 0x15CE JUMP JUMPDEST POP SWAP4 SWAP3 POP POP POP JUMP JUMPDEST PUSH1 0x0 DUP3 PUSH1 0x1F DUP4 ADD SLT PUSH2 0x1634 JUMPI PUSH2 0x1633 PUSH2 0x1518 JUMP JUMPDEST JUMPDEST DUP2 CALLDATALOAD PUSH2 0x1644 DUP5 DUP3 PUSH1 0x20 DUP7 ADD PUSH2 0x15DD JUMP JUMPDEST SWAP2 POP POP SWAP3 SWAP2 POP POP JUMP JUMPDEST PUSH1 0x0 DUP1 PUSH1 0x40 DUP4 DUP6 SUB SLT ISZERO PUSH2 0x1664 JUMPI PUSH2 0x1663 PUSH2 0x112F JUMP JUMPDEST JUMPDEST PUSH1 0x0 DUP4 ADD CALLDATALOAD PUSH8 0xFFFFFFFFFFFFFFFF DUP2 GT ISZERO PUSH2 0x1682 JUMPI PUSH2 0x1681 PUSH2 0x1134 JUMP JUMPDEST JUMPDEST PUSH2 0x168E DUP6 DUP3 DUP7 ADD PUSH2 0x161F JUMP JUMPDEST SWAP3 POP POP PUSH1 0x20 PUSH2 0x169F DUP6 DUP3 DUP7 ADD PUSH2 0x1150 JUMP JUMPDEST SWAP2 POP POP SWAP3 POP SWAP3 SWAP1 POP JUMP JUMPDEST PUSH1 0x0 DUP3 DUP3 MSTORE PUSH1 0x20 DUP3 ADD SWAP1 POP SWAP3 SWAP2 POP POP JUMP JUMPDEST PUSH1 0x0 PUSH2 0x16C5 DUP3 PUSH2 0x11A1 JUMP JUMPDEST PUSH2 0x16CF DUP2 DUP6 PUSH2 0x16A9 JUMP JUMPDEST SWAP4 POP PUSH2 0x16DF DUP2 DUP6 PUSH1 0x20 DUP7 ADD PUSH2 0x11BD JUMP JUMPDEST PUSH2 0x16E8 DUP2 PUSH2 0x11E7 JUMP JUMPDEST DUP5 ADD SWAP2 POP POP SWAP3 SWAP2 POP POP JUMP JUMPDEST PUSH1 0x0 PUSH1 0x80 DUP3 ADD SWAP1 POP PUSH2 0x1708 PUSH1 0x0 DUP4 ADD DUP8 PUSH2 0x10FB JUMP JUMPDEST PUSH2 0x1715 PUSH1 0x20 DUP4 ADD DUP7 PUSH2 0x10FB JUMP JUMPDEST DUP2 DUP2 SUB PUSH1 0x40 DUP4 ADD MSTORE PUSH2 0x1727 DUP2 DUP6 PUSH2 0x16BA JUMP JUMPDEST SWAP1 POP PUSH2 0x1736 PUSH1 0x60 DUP4 ADD DUP5 PUSH2 0x12D1 JUMP JUMPDEST SWAP6 SWAP5 POP POP POP POP POP JUMP JUMPDEST PUSH32 0x4E487B7100000000000000000000000000000000000000000000000000000000 PUSH1 0x0 MSTORE PUSH1 0x22 PUSH1 0x4 MSTORE PUSH1 0x24 PUSH1 0x0 REVERT JUMPDEST PUSH1 0x0 PUSH1 0x2 DUP3 DIV SWAP1 POP PUSH1 0x1 DUP3 AND DUP1 PUSH2 0x1786 JUMPI PUSH1 0x7F DUP3 AND SWAP2 POP JUMPDEST PUSH1 0x20 DUP3 LT DUP2 SUB PUSH2 0x1799 JUMPI PUSH2 0x1798 PUSH2 0x173F JUMP JUMPDEST JUMPDEST POP SWAP2 SWAP1 POP JUMP JUMPDEST PUSH32 0x4E6F74205965742054696D650000000000000000000000000000000000000000 PUSH1 0x0 DUP3 ADD MSTORE POP JUMP JUMPDEST PUSH1 0x0 PUSH2 0x17D5 PUSH1 0xC DUP4 PUSH2 0x16A9 JUMP JUMPDEST SWAP2 POP PUSH2 0x17E0 DUP3 PUSH2 0x179F JUMP JUMPDEST PUSH1 0x20 DUP3 ADD SWAP1 POP SWAP2 SWAP1 POP JUMP JUMPDEST PUSH1 0x0 PUSH1 0x20 DUP3 ADD SWAP1 POP DUP2 DUP2 SUB PUSH1 0x0 DUP4 ADD MSTORE PUSH2 0x1804 DUP2 PUSH2 0x17C8 JUMP JUMPDEST SWAP1 POP SWAP2 SWAP1 POP JUMP JUMPDEST PUSH32 0x4E6F74204F776E65720000000000000000000000000000000000000000000000 PUSH1 0x0 DUP3 ADD MSTORE POP JUMP JUMPDEST PUSH1 0x0 PUSH2 0x1841 PUSH1 0x9 DUP4 PUSH2 0x16A9 JUMP JUMPDEST SWAP2 POP PUSH2 0x184C DUP3 PUSH2 0x180B JUMP JUMPDEST PUSH1 0x20 DUP3 ADD SWAP1 POP SWAP2 SWAP1 POP JUMP JUMPDEST PUSH1 0x0 PUSH1 0x20 DUP3 ADD SWAP1 POP DUP2 DUP2 SUB PUSH1 0x0 DUP4 ADD MSTORE PUSH2 0x1870 DUP2 PUSH2 0x1834 JUMP JUMPDEST SWAP1 POP SWAP2 SWAP1 POP JUMP JUMPDEST PUSH1 0x0 PUSH2 0x1882 DUP3 PUSH2 0x12FB JUMP JUMPDEST SWAP1 POP SWAP2 SWAP1 POP JUMP JUMPDEST PUSH2 0x1892 DUP2 PUSH2 0x1877 JUMP JUMPDEST DUP3 MSTORE POP POP JUMP JUMPDEST PUSH1 0x0 PUSH1 0x20 DUP3 ADD SWAP1 POP PUSH2 0x18AD PUSH1 0x0 DUP4 ADD DUP5 PUSH2 0x1889 JUMP JUMPDEST SWAP3 SWAP2 POP POP JUMP JUMPDEST PUSH1 0x0 DUP2 MLOAD SWAP1 POP PUSH2 0x18C2 DUP2 PUSH2 0x1139 JUMP JUMPDEST SWAP3 SWAP2 POP POP JUMP JUMPDEST PUSH1 0x0 PUSH1 0x20 DUP3 DUP5 SUB SLT ISZERO PUSH2 0x18DE JUMPI PUSH2 0x18DD PUSH2 0x112F JUMP JUMPDEST JUMPDEST PUSH1 0x0 PUSH2 0x18EC DUP5 DUP3 DUP6 ADD PUSH2 0x18B3 JUMP JUMPDEST SWAP2 POP POP SWAP3 SWAP2 POP POP JUMP JUMPDEST PUSH1 0x0 PUSH1 0x40 DUP3 ADD SWAP1 POP PUSH2 0x190A PUSH1 0x0 DUP4 ADD DUP6 PUSH2 0x10FB JUMP JUMPDEST PUSH2 0x1917 PUSH1 0x20 DUP4 ADD DUP5 PUSH2 0x10FB JUMP JUMPDEST SWAP4 SWAP3 POP POP POP JUMP JUMPDEST PUSH1 0x0 PUSH2 0x1929 DUP3 PUSH2 0x1383 JUMP JUMPDEST SWAP1 POP SWAP2 SWAP1 POP JUMP JUMPDEST PUSH2 0x1939 DUP2 PUSH2 0x191E JUMP JUMPDEST DUP3 MSTORE POP POP JUMP JUMPDEST PUSH1 0x0 PUSH1 0x40 DUP3 ADD SWAP1 POP PUSH2 0x1954 PUSH1 0x0 DUP4 ADD DUP6 PUSH2 0x1930 JUMP JUMPDEST PUSH2 0x1961 PUSH1 0x20 DUP4 ADD DUP5 PUSH2 0x10FB JUMP JUMPDEST SWAP4 SWAP3 POP POP POP JUMP JUMPDEST PUSH2 0x1971 DUP2 PUSH2 0x1231 JUMP JUMPDEST DUP2 EQ PUSH2 0x197C JUMPI PUSH1 0x0 DUP1 REVERT JUMPDEST POP JUMP JUMPDEST PUSH1 0x0 DUP2 MLOAD SWAP1 POP PUSH2 0x198E DUP2 PUSH2 0x1968 JUMP JUMPDEST SWAP3 SWAP2 POP POP JUMP JUMPDEST PUSH1 0x0 PUSH1 0x20 DUP3 DUP5 SUB SLT ISZERO PUSH2 0x19AA JUMPI PUSH2 0x19A9 PUSH2 0x112F JUMP JUMPDEST JUMPDEST PUSH1 0x0 PUSH2 0x19B8 DUP5 DUP3 DUP6 ADD PUSH2 0x197F JUMP JUMPDEST SWAP2 POP POP SWAP3 SWAP2 POP POP JUMP JUMPDEST PUSH32 0x496E76616C696420416464726573730000000000000000000000000000000000 PUSH1 0x0 DUP3 ADD MSTORE POP JUMP JUMPDEST PUSH1 0x0 PUSH2 0x19F7 PUSH1 0xF DUP4 PUSH2 0x16A9 JUMP JUMPDEST SWAP2 POP PUSH2 0x1A02 DUP3 PUSH2 0x19C1 JUMP JUMPDEST PUSH1 0x20 DUP3 ADD SWAP1 POP SWAP2 SWAP1 POP JUMP JUMPDEST PUSH1 0x0 PUSH1 0x20 DUP3 ADD SWAP1 POP DUP2 DUP2 SUB PUSH1 0x0 DUP4 ADD MSTORE PUSH2 0x1A26 DUP2 PUSH2 0x19EA JUMP JUMPDEST SWAP1 POP SWAP2 SWAP1 POP JUMP JUMPDEST PUSH32 0x496E73756666696369656E74206D617469632062616C616E6365000000000000 PUSH1 0x0 DUP3 ADD MSTORE POP JUMP JUMPDEST PUSH1 0x0 PUSH2 0x1A63 PUSH1 0x1A DUP4 PUSH2 0x16A9 JUMP JUMPDEST SWAP2 POP PUSH2 0x1A6E DUP3 PUSH2 0x1A2D JUMP JUMPDEST PUSH1 0x20 DUP3 ADD SWAP1 POP SWAP2 SWAP1 POP JUMP JUMPDEST PUSH1 0x0 PUSH1 0x20 DUP3 ADD SWAP1 POP DUP2 DUP2 SUB PUSH1 0x0 DUP4 ADD MSTORE PUSH2 0x1A92 DUP2 PUSH2 0x1A56 JUMP JUMPDEST SWAP1 POP SWAP2 SWAP1 POP JUMP JUMPDEST PUSH1 0x0 PUSH1 0x60 DUP3 ADD SWAP1 POP PUSH2 0x1AAE PUSH1 0x0 DUP4 ADD DUP7 PUSH2 0x1889 JUMP JUMPDEST PUSH2 0x1ABB PUSH1 0x20 DUP4 ADD DUP6 PUSH2 0x1889 JUMP JUMPDEST PUSH2 0x1AC8 PUSH1 0x40 DUP4 ADD DUP5 PUSH2 0x10FB JUMP JUMPDEST SWAP5 SWAP4 POP POP POP POP JUMP JUMPDEST PUSH32 0x4E487B7100000000000000000000000000000000000000000000000000000000 PUSH1 0x0 MSTORE PUSH1 0x11 PUSH1 0x4 MSTORE PUSH1 0x24 PUSH1 0x0 REVERT JUMPDEST PUSH1 0x0 PUSH2 0x1B0A DUP3 PUSH2 0x10F1 JUMP JUMPDEST SWAP2 POP PUSH2 0x1B15 DUP4 PUSH2 0x10F1 JUMP JUMPDEST SWAP3 POP DUP3 DUP3 ADD SWAP1 POP DUP1 DUP3 GT ISZERO PUSH2 0x1B2D JUMPI PUSH2 0x1B2C PUSH2 0x1AD0 JUMP JUMPDEST JUMPDEST SWAP3 SWAP2 POP POP JUMP JUMPDEST PUSH32 0x4974656D20616C72656164792063726561746564000000000000000000000000 PUSH1 0x0 DUP3 ADD MSTORE POP JUMP JUMPDEST PUSH1 0x0 PUSH2 0x1B69 PUSH1 0x14 DUP4 PUSH2 0x16A9 JUMP JUMPDEST SWAP2 POP PUSH2 0x1B74 DUP3 PUSH2 0x1B33 JUMP JUMPDEST PUSH1 0x20 DUP3 ADD SWAP1 POP SWAP2 SWAP1 POP JUMP JUMPDEST PUSH1 0x0 PUSH1 0x20 DUP3 ADD SWAP1 POP DUP2 DUP2 SUB PUSH1 0x0 DUP4 ADD MSTORE PUSH2 0x1B98 DUP2 PUSH2 0x1B5C JUMP JUMPDEST SWAP1 POP SWAP2 SWAP1 POP JUMP JUMPDEST PUSH1 0x0 DUP2 SWAP1 POP DUP2 PUSH1 0x0 MSTORE PUSH1 0x20 PUSH1 0x0 KECCAK256 SWAP1 POP SWAP2 SWAP1 POP JUMP JUMPDEST PUSH1 0x0 PUSH1 0x20 PUSH1 0x1F DUP4 ADD DIV SWAP1 POP SWAP2 SWAP1 POP JUMP JUMPDEST PUSH1 0x0 DUP3 DUP3 SHL SWAP1 POP SWAP3 SWAP2 POP POP JUMP JUMPDEST PUSH1 0x0 PUSH1 0x8 DUP4 MUL PUSH2 0x1C01 PUSH32 0xFFFFFFFFFFFFFFFFFFFFFFFFFFFFFFFFFFFFFFFFFFFFFFFFFFFFFFFFFFFFFFFF DUP3 PUSH2 0x1BC4 JUMP JUMPDEST PUSH2 0x1C0B DUP7 DUP4 PUSH2 0x1BC4 JUMP JUMPDEST SWAP6 POP DUP1 NOT DUP5 AND SWAP4 POP DUP1 DUP7 AND DUP5 OR SWAP3 POP POP POP SWAP4 SWAP3 POP POP POP JUMP JUMPDEST PUSH1 0x0 PUSH2 0x1C3E PUSH2 0x1C39 PUSH2 0x1C34 DUP5 PUSH2 0x10F1 JUMP JUMPDEST PUSH2 0x1357 JUMP JUMPDEST PUSH2 0x10F1 JUMP JUMPDEST SWAP1 POP SWAP2 SWAP1 POP JUMP JUMPDEST PUSH1 0x0 DUP2 SWAP1 POP SWAP2 SWAP1 POP JUMP JUMPDEST PUSH2 0x1C58 DUP4 PUSH2 0x1C23 JUMP JUMPDEST PUSH2 0x1C6C PUSH2 0x1C64 DUP3 PUSH2 0x1C45 JUMP JUMPDEST DUP5 DUP5 SLOAD PUSH2 0x1BD1 JUMP JUMPDEST DUP3 SSTORE POP POP POP POP JUMP JUMPDEST PUSH1 0x0 SWAP1 JUMP JUMPDEST PUSH2 0x1C81 PUSH2 0x1C74 JUMP JUMPDEST PUSH2 0x1C8C DUP2 DUP5 DUP5 PUSH2 0x1C4F JUMP JUMPDEST POP POP POP JUMP JUMPDEST JUMPDEST DUP2 DUP2 LT ISZERO PUSH2 0x1CB0 JUMPI PUSH2 0x1CA5 PUSH1 0x0 DUP3 PUSH2 0x1C79 JUMP JUMPDEST PUSH1 0x1 DUP2 ADD SWAP1 POP PUSH2 0x1C92 JUMP JUMPDEST POP POP JUMP JUMPDEST PUSH1 0x1F DUP3 GT ISZERO PUSH2 0x1CF5 JUMPI PUSH2 0x1CC6 DUP2 PUSH2 0x1B9F JUMP JUMPDEST PUSH2 0x1CCF DUP5 PUSH2 0x1BB4 JUMP JUMPDEST DUP2 ADD PUSH1 0x20 DUP6 LT ISZERO PUSH2 0x1CDE JUMPI DUP2 SWAP1 POP JUMPDEST PUSH2 0x1CF2 PUSH2 0x1CEA DUP6 PUSH2 0x1BB4 JUMP JUMPDEST DUP4 ADD DUP3 PUSH2 0x1C91 JUMP JUMPDEST POP POP JUMPDEST POP POP POP JUMP JUMPDEST PUSH1 0x0 DUP3 DUP3 SHR SWAP1 POP SWAP3 SWAP2 POP POP JUMP JUMPDEST PUSH1 0x0 PUSH2 0x1D18 PUSH1 0x0 NOT DUP5 PUSH1 0x8 MUL PUSH2 0x1CFA JUMP JUMPDEST NOT DUP1 DUP4 AND SWAP2 POP POP SWAP3 SWAP2 POP POP JUMP JUMPDEST PUSH1 0x0 PUSH2 0x1D31 DUP4 DUP4 PUSH2 0x1D07 JUMP JUMPDEST SWAP2 POP DUP3 PUSH1 0x2 MUL DUP3 OR SWAP1 POP SWAP3 SWAP2 POP POP JUMP JUMPDEST PUSH2 0x1D4A DUP3 PUSH2 0x11A1 JUMP JUMPDEST PUSH8 0xFFFFFFFFFFFFFFFF DUP2 GT ISZERO PUSH2 0x1D63 JUMPI PUSH2 0x1D62 PUSH2 0x1522 JUMP JUMPDEST JUMPDEST PUSH2 0x1D6D DUP3 SLOAD PUSH2 0x176E JUMP JUMPDEST PUSH2 0x1D78 DUP3 DUP3 DUP6 PUSH2 0x1CB4 JUMP JUMPDEST PUSH1 0x0 PUSH1 0x20 SWAP1 POP PUSH1 0x1F DUP4 GT PUSH1 0x1 DUP2 EQ PUSH2 0x1DAB JUMPI PUSH1 0x0 DUP5 ISZERO PUSH2 0x1D99 JUMPI DUP3 DUP8 ADD MLOAD SWAP1 POP JUMPDEST PUSH2 0x1DA3 DUP6 DUP3 PUSH2 0x1D25 JUMP JUMPDEST DUP7 SSTORE POP PUSH2 0x1E0B JUMP JUMPDEST PUSH1 0x1F NOT DUP5 AND PUSH2 0x1DB9 DUP7 PUSH2 0x1B9F JUMP JUMPDEST PUSH1 0x0 JUMPDEST DUP3 DUP2 LT ISZERO PUSH2 0x1DE1 JUMPI DUP5 DUP10 ADD MLOAD DUP3 SSTORE PUSH1 0x1 DUP3 ADD SWAP2 POP PUSH1 0x20 DUP6 ADD SWAP5 POP PUSH1 0x20 DUP2 ADD SWAP1 POP PUSH2 0x1DBC JUMP JUMPDEST DUP7 DUP4 LT ISZERO PUSH2 0x1DFE JUMPI DUP5 DUP10 ADD MLOAD PUSH2 0x1DFA PUSH1 0x1F DUP10 AND DUP3 PUSH2 0x1D07 JUMP JUMPDEST DUP4 SSTORE POP JUMPDEST PUSH1 0x1 PUSH1 0x2 DUP9 MUL ADD DUP9 SSTORE POP POP POP JUMPDEST POP POP POP POP POP POP JUMP JUMPDEST PUSH1 0x0 DUP2 SWAP1 POP SWAP3 SWAP2 POP POP JUMP JUMPDEST PUSH1 0x0 PUSH2 0x1E29 DUP3 PUSH2 0x11A1 JUMP JUMPDEST PUSH2 0x1E33 DUP2 DUP6 PUSH2 0x1E13 JUMP JUMPDEST SWAP4 POP PUSH2 0x1E43 DUP2 DUP6 PUSH1 0x20 DUP7 ADD PUSH2 0x11BD JUMP JUMPDEST DUP1 DUP5 ADD SWAP2 POP POP SWAP3 SWAP2 POP POP JUMP JUMPDEST PUSH1 0x0 PUSH2 0x1E5B DUP3 DUP5 PUSH2 0x1E1E JUMP JUMPDEST SWAP2 POP DUP2 SWAP1 POP SWAP3 SWAP2 POP POP JUMP JUMPDEST PUSH1 0x0 PUSH2 0x1E71 DUP3 PUSH2 0x10F1 JUMP JUMPDEST SWAP2 POP PUSH32 0xFFFFFFFFFFFFFFFFFFFFFFFFFFFFFFFFFFFFFFFFFFFFFFFFFFFFFFFFFFFFFFFF DUP3 SUB PUSH2 0x1EA3 JUMPI PUSH2 0x1EA2 PUSH2 0x1AD0 JUMP JUMPDEST JUMPDEST PUSH1 0x1 DUP3 ADD SWAP1 POP SWAP2 SWAP1 POP JUMP INVALID LOG2 PUSH5 0x6970667358 0x22 SLT KECCAK256 PUSH22 0x46D08DA2D61AD8E1562D98BDFD99E4F1C5A13147F4AF CREATE2 0xB0 STATICCALL EXP 0x5D PUSH23 0x2C80DF64736F6C63430008110033000000000000000000 "},"methodIdentifiers":{"Budgets(uint256)":"d9859144","balance()":"b69ef8a8","budgetCount()":"0a3e6fc2","createBudget(string,uint256)":"a11ad097","depositBudgetFund(uint256)":"7b7e5a0f","initialBudgetFunds()":"41ddfcb2","listItem(uint256)":"2ce38190","maticContractAddress()":"9cd7756f","myList()":"9f02f107","owner()":"8da5cb5b","removeItem(uint256)":"71329171","removeItems(uint256)":"da14bde3","unlockTime()":"251c1aa3","withdraw()":"3ccfd60b"}}}}}